:020000040000FA
:04000000AFEF0CF062
:10100000000E0A1F1F1F1F1F000E0A111F1F1F1F88
:10101000000E0A11111F1F1F000E0A1111111F1FB0
:10102000000E0A111111111F001F030D11011F00E5
:10103000001F181611101F00001E1E1E1E1E1E1E51
:10104000001C1C1C1C1C1C1C001818181818181834
:10105000001F150E040404040006150D060D1506E8
:10106000000E0E1F1F1F1F1F004553204469706C88
:101070006F6D610033206D65737361676573007216
:1010800065636569766564002020202000526561F3
:10109000640025690000450E106E000E116E5FECB5
:1010A00009F0450E1B6E000E1C6E040E1D6E140E14
:1010B0001E6E610E1F6E100E206E000E216E7FECF4
:1010C0000BF0450E1B6E000E1C6E010E1D6E130EF6
:1010D0001E6E590E1F6E100E206E010E216E7FECDB
:1010E0000BF0450E1B6E000E1C6E040E1D6E010EE5
:1010F0001E6E510E1F6E100E206E020E216E7FECC2
:101100000BF0450E1B6E000E1C6E030E1D6E010EC5
:101110001E6E490E1F6E100E206E030E216E7FECA8
:101120000BF0450E1B6E000E1C6E030E1D6E140E92
:101130001E6E490E1F6E100E206E030E216E7FEC88
:101140000BF0450E1B6E000E1C6E020E1D6E010E86
:101150001E6E410E1F6E100E206E040E216E7FEC6F
:101160000BF0450E1B6E000E1C6E020E1D6E140E53
:101170001E6E410E1F6E100E206E040E216E7FEC4F
:101180000BF0450E1B6E000E1C6E010E1D6E140E34
:101190001E6E390E1F6E100E206E040E216E7FEC37
:1011A0000BF0450E1B6E000E1C6E010E1D6E020E26
:1011B0001E6E310E1F6E100E206E050E216E7FEC1E
:1011C0000BF0450E1B6E000E1C6E010E1D6E030E05
:1011D0001E6E290E1F6E100E206E060E216E7FEC05
:1011E0000BF0450E166E000E176E020E186E020EF4
:1011F000196E740E1A6E100E1B6EBDEC0BF0450EC0
:10120000166E000E176E030E186E050E196E7F0E09
:101210001A6E100E1B6EBDEC0BF0450E166E000E16
:10122000176E040E186E090E196E8D0E1A6E100EC2
:101230001B6EBDEC0BF0450E166E000E176E010E08
:10124000186E060E196E690E1A6E100E1B6EBDEC2E
:101250000BF0450E166E000E176E040E186E090E7A
:10126000196E8D0E1A6E100E1B6EBDEC0BF0060E75
:10127000266E130E256EAE0EE82EFED7252EFCD759
:10128000262EFAD7450E166E000E176E040E186E37
:10129000090E196E880E1A6E100E1B6EBDEC0BF047
:1012A000060E266E130E256EAE0EE82EFED7252EE8
:1012B000FCD7262EFAD71BEF09F000EF00F0000E46
:1012C000016E10C0D9FF11C0DAFFDF500F0B36ECF2
:1012D0000BF0000E016E10C0D9FF11C0DAFFDF5015
:1012E0000F0B76EC0CF020EE01F01050D9261150C7
:1012F000DA22DF38070B016E000E026E10C0D9FF34
:1013000011C0DAFFDF380F0B85EC0AF020EE01F098
:101310001050D9261150DA22DF38070B016E000E6B
:10132000026E10C0D9FF11C0DAFFDF380F0B1FECBF
:101330000AF020EE02F01050D9261150DA22DF50C8
:10134000070B016E000E026E20EE01F01050D92640
:101350001150DA22DF500F0B85EC0AF020EE02F07C
:101360001050D9261150DA22DF50070B016E000E03
:10137000026E20EE01F01050D9261150DA22DF5013
:101380000F0B1FEC0AF0680E126EE40EE82EFED76B
:10139000122EFCD700F000F010C00CF011C00DF0C0
:1013A000380E0E6EF6EC0BF00D0E126EFC0EE82EE3
:1013B000FED7122EFCD710C00CF011C00DF0380E65
:1013C0000E6EF6EC0BF0C80EE82EFED710C00CF037
:1013D00011C00DF0380E0E6EF6EC0BF010C00CF0D4
:1013E00011C00DF0010E0E6EF6EC0BF010C00CF0FB
:1013F00011C00DF0020E0E6EF6EC0BF010C00CF0EA
:1014000011C00DF0060E0E6EF6EC0BF010C00CF0D5
:1014100011C00DF00C0E0E6EF6EC0BF010C00CF0BF
:1014200011C00DF0380E0E6EF6EC0BF010C00CF083
:1014300011C00DF0800E0E6EF6EC0BF01200096E6E
:10144000070E016426EF0AF028EF0AF06FEF0AF0AA
:1014500084EF0AF001C003F0010E046E032A33EF9B
:101460000AF0D8900436032E31EF0AF00450FF0A38
:10147000056E0950020D310EF324D96E000EF420D2
:10148000DA6EDECF06F0DDCF07F006C0D9FF07C069
:10149000DAFF0550DF1684EF0AF001C003F0010EF9
:1014A000046E032A56EF0AF0D8900436032E54EF48
:1014B0000AF00950020D310EF324D96E000EF4200B
:1014C000DA6EDECF05F0DDCF06F005C0D9FF06C02D
:1014D000DAFF0450DF124BEF0AF084EF0AF00250FB
:1014E000036E046A0450000AD8B479EF0AF06DEF75
:1014F0000AF00350000AD8B42AEF0AF0010AD8B45F
:101500004DEF0AF06DEF0AF01200096E070E01644C
:101510008CEF0AF08EEF0AF0D3EF0AF0E8EF0AF052
:1015200001C003F0010E046E032A99EF0AF0D8906F
:101530000436032E97EF0AF00450FF0A056E095097
:10154000020D3B0EF324D96E000EF420DA6EDECFCE
:1015500006F0DDCF07F006C0D9FF07C0DAFF05505F
:10156000DF16E8EF0AF001C003F0010E046E032A53
:10157000BCEF0AF0D8900436032EBAEF0AF00950F7
:10158000020D3B0EF324D96E000EF420DA6EDECF8E
:1015900005F0DDCF06F005C0D9FF06C0DAFF045024
:1015A000DF12B1EF0AF00250036E046A0450000A21
:1015B000D8B4DDEF0AF0E8EF0AF00350000AD8B41F
:1015C00090EF0AF0010AD8B4B3EF0AF0E8EF0AF09E
:1015D0001200130618EF0BF010C00CF011C00DF044
:1015E0001350800F0E6EF6EC0BF035EF0BF010C0C1
:1015F0000CF011C00DF01350C00F0E6EF6EC0BF096
:1016000035EF0BF010C00CF011C00DF01350940F1B
:101610000E6EF6EC0BF035EF0BF010C00CF011C0B5
:101620000DF01350D40F0E6EF6EC0BF035EF0BF0FF
:101630001250146E156A1550000AD8B422EF0BF040
:1016400035EF0BF01450010AD8B4ECEF0AF0030A9E
:10165000D8B4F7EF0AF0010AD8B402EF0BF0070A8A
:10166000D8B40DEF0BF035EF0BF01200056E040E41
:1016700005643DEF0BF03FEF0BF069EF0BF07EEFF1
:101680000BF00550020D3B0EF324D96E000EF42032
:10169000DA6EDECF02F0DDCF03F002C0D9FF03C067
:1016A000DAFF000EDF6E7EEF0BF00550020D3B0EF1
:1016B000F324D96E000EF420DA6EDECF02F0DDCF17
:1016C00003F002C0D9FF03C0DAFFFF0EDF6E53EF55
:1016D0000BF00150026E036A0350000AD8B473EF96
:1016E0000BF07EEF0BF00250000AD8B441EF0BF084
:1016F000010AD8B455EF0BF07EEF0BF012001BC0BF
:101700000CF01CC00DF02150080DF350400F0E6E70
:10171000F6EC0BF0000E246E1BC00CF01CC00DF09C
:1017200024501F24226E000E2020236E22C0F6FFBC
:1017300023C0F7FF0800F5CF0EF050EC0CF0242A80
:10174000070E2464A6EF0BF0A8EF0BF08CEF0BF064
:101750001BC00CF01CC00DF0020E0E6EF6EC0BF070
:101760001BC016F01CC017F01DC018F01EC019F0E9
:1017700021C01AF094EC0CF0120016C00CF017C047
:101780000DF0020E0E6EF6EC0BF016C010F017C046
:1017900011F018C012F019C013F0E9EC0AF0E7EFED
:1017A0000BF016C00CF017C00DF01AC0F6FF1BC0EE
:1017B000F7FF0800F5CF0EF050EC0CF01A4A1B2A88
:1017C000030E1C6E980EE82EFED71C2EFCD71AC0F6
:1017D000F6FF1BC0F7FF0800F5500009D8A4F3EF8F
:1017E0000BF0F5EF0BF0D1EF0BF0120020EE02F052
:1017F0000C50D9260D50DA22DF50070B016E000E77
:10180000026E20EE01F00C50D9260D50DA22DF5086
:101810000F0B1FEC0AF00EC001F00CC0D9FF0DC079
:10182000DAFFDF500F0B76EC0CF00CC00AF00DC0A5
:101830000BF025EC0CF0060E0F6E300EE82EFED7E6
:101840000F2EFCD700F000F0120020EE01F00A503D
:10185000D9260B50DA22DF38070B016E010E026E1B
:101860000AC0D9FF0BC0DAFFDF380F0B1FEC0AF0FC
:10187000850EE82EFED700F020EE01F00A50D926A2
:101880000B50DA22DF38070B016E000E026E0AC021
:10189000D9FF0BC0DAFFDF380F0B1FEC0AF0120084
:1018A00020EE02F00C50D9260D50DA22DF50070B43
:1018B000016E010E026E20EE01F00C50D9260D5083
:1018C000DA22DF500F0B1FEC0AF00EC001F00CC043
:1018D000D9FF0DC0DAFFDF500F0B76EC0CF00CC017
:1018E0000AF00DC00BF025EC0CF01200056E040E92
:1018F00005647DEF0CF07FEF0CF081EF0CF093EFBF
:101900000CF00550020D310EF324D96E000EF420B8
:10191000DA6EDECF02F0DDCF03F002C0D9FF03C0E4
:10192000DAFF01C0DFFF120016C00CF017C00DF087
:10193000020E0E6EF6EC0BF016C010F017C011F090
:1019400018C012F019C013F0E9EC0AF016C00CF040
:1019500017C00DF01AC00EF050EC0CF01200880EFB
:10196000F66E190EF76E000EF86E00EE27F010EE10
:1019700022F00900F5CFEEFFE550E150FAE1000E4C
:10198000F86E00014BEF08F0800F810F820F830F7C
:10199000840F890F8A0F8B0F8C0F8D0F920F930F6F
:0A19A000940F950F960F321300000C
:020000040020DA
:08000000FFFFFFFFFFFFFFFF00
:020000040030CA
:0E000000FF071F1FFF8B85FF0FC00FE00F4093
:00000001FF
