:020000040000FA
:040000003BEF00F0E2
:060008004E82F1EF08F04A
:100018004E80D8CF4BF0E8CF4CF0E0CF4DF0F0A6B3
:1000280018EF00F01AEF00F023EF00F0F0A01FEF38
:1000380000F021EF00F023EF00F036EC0BF0F0A811
:1000480028EF00F02AEF00F033EF00F0F0A22FEFD6
:1000580000F031EF00F033EF00F032EC0BF04DC060
:10006800E0FF4CC0E8FF4BC0D8FF4E9010004AEFAD
:020078000AF08C
:0510000000256900005D
:10100600D59E82C0D9FF83C0DAFF0001DFA00EEFB4
:1010160008F010EF08F013EF08F0D58C14EF08F085
:10102600D59C82C0D9FF83C0DAFFDFA21DEF08F08E
:101036001FEF08F022EF08F0D59A32EF08F0D58AB4
:1010460082C0D9FF83C0DAFFDFA82CEF08F02EEFAD
:1010560008F031EF08F0D58832EF08F0D59882C055
:10106600D9FF83C0DAFFDFA43BEF08F03DEF08F0BD
:101076004DEF08F0D59682C0D9FF83C0DAFFDF387E
:10108600E832070B846FD5508419F80B8419D56E96
:101096004EEF08F0D58682C0D9FF83C0DAFFDFA6FF
:1010A60057EF08F059EF08F069EF08F020EE03F06B
:1010B6008251D9268351DA22DECF0DF0DDCF0EF034
:1010C600F28EF28CF294F28A6EEF08F0F29A000E2B
:1010D6000D6E000E0E6E20EE01F08251D926835160
:1010E600DA22DECF7FF0DDCF80F027EC0BF00001B7
:1010F60020EE01F08251D9268351DA22DECF0BF0A1
:10110600DDCF0CF0D58E12000001876F070E0001AF
:101116007F6590EF08F092EF08F0DBEF08F0F0EF54
:1011260008F07FC081F0010E826F812B9DEF08F0E1
:10113600D8908237812F9BEF08F000018251FF0A79
:10114600836F8751020D1E0EF324D96E000EF42014
:10115600DA6EDECF84F0DDCF85F084C0D9FF85C09E
:10116600DAFF8351DF16F0EF08F07FC081F0010E41
:10117600826F812BC1EF08F0D8908237812FBFEFA5
:1011860008F000018751020D1E0EF324D96E000EE1
:10119600F420DA6EDECF83F0DDCF84F083C0D9FF92
:1011A60084C0DAFF8251DF12B6EF08F0F0EF08F0E4
:1011B6008051816F826B8251000AD8B4E5EF08F046
:1011C600D9EF08F08151000AD8B494EF08F0010A6B
:1011D600D8B4B8EF08F0D9EF08F01200FACF45F00E
:1011E600FBCF46F0D9CF47F0DACF48F0F3CF49F03E
:1011F600F4CF4AF0F2A802EF09F004EF09F00DEF80
:1012060009F0F2A209EF09F00BEF09F00DEF09F072
:101216003EEC0BF0F2AA12EF09F014EF09F01DEF05
:1012260009F0F2A419EF09F01BEF09F01DEF09F020
:10123600F9EC0AF09DA022EF09F024EF09F02DEF5A
:1012460009F09EA029EF09F02BEF09F02DEF09F028
:101256000BEC0BF09DA232EF09F034EF09F03DEFF5
:1012660009F09EA239EF09F03BEF09F03DEF09F0D6
:1012760013EC0BF0A0A242EF09F044EF09F04DEF9A
:1012860009F0A1A249EF09F04BEF09F04DEF09F083
:1012960003EC0BF04AC0F4FF49C0F3FF48C0DAFF85
:1012A60047C0D9FF46C0FBFF45C0FAFF4E9211006A
:1012B6000001876F070E00017F6564EF09F066EF96
:1012C60009F0ADEF09F0C2EF09F07FC081F0010E21
:1012D600826F812B71EF09F0D8908237812F6FEFE3
:1012E60009F000018251FF0A836F8751020D280E13
:1012F600F324D96E000EF420DA6EDECF84F0DDCF53
:1013060085F084C0D9FF85C0DAFF8351DF16C2EFAE
:1013160009F07FC081F0010E826F812B95EF09F0F5
:10132600D8908237812F93EF09F000018751020D83
:10133600280EF324D96E000EF420DA6EDECF83F089
:10134600DDCF84F083C0D9FF84C0DAFF8251DF127B
:101356008AEF09F08051816F826B8251000AD8B4FE
:10136600B7EF09F0C2EF09F08151000AD8B468EF6F
:1013760009F0010AD8B48CEF09F0C2EF09F01200A7
:10138600000188518911D8B4CBEF09F0CDEF09F0EF
:1013960010EF0AF088C0D9FF89C0DAFFDF500F0BC3
:1013A6008A6F050E8A61DAEF09F0DCEF09F010EFBB
:1013B6000AF088C0D9FF89C0DAFFDF380F0B8A6FC1
:1013C600070E8A65E9EF09F0EBEF09F0EDEF09F09A
:1013D60010EF0AF088C0D9FF89C0DAFFDF380F0B9B
:1013E6007F6F000E806F88C0D9FF89C0DAFFDF509B
:1013F6000F0B5BEC09F088C0D9FF89C0DAFF00014A
:10140600DF380F0B7F6F000E806F88C0D9FF89C051
:10141600DAFFDF500F0B87EC08F012004150421044
:10142600D8B418EF0AF01AEF0AF049EF0AF041C0F3
:10143600D9FF42C0DAFFDF500F0B436E050E436043
:1014460027EF0AF029EF0AF049EF0AF041C0D9FF69
:1014560042C0DAFFDF380F0B436E070E436436EFE8
:101466000AF038EF0AF03AEF0AF049EF0AF041C005
:10147600D9FF42C0DAFFDF380F0B3A6E41C0D9FF01
:1014860042C0DAFFDF500F0B75EC0AF01200B60E01
:10149600F66E150EF76E000EF86E00EE60F010EEAA
:1014A6001FF00900F5CFEEFFE550E150FAE1D50E49
:1014B600F66E150EF76E000EF86E00EE1EF010EECC
:1014C6001CF00900F5CFEEFFE550E150FAE100EE21
:1014D60001F01D0EEE6AE806FDE14E904E92000107
:1014E60021EF0BF0406E070E3A647CEF0AF07EEFB8
:1014F6000AF080EF0AF09EEF0AF03AC03BF0010EC8
:101506003C6E3B2A89EF0AF0D8903C363B2E87EF9B
:101516000AF04050020D1E0EF324D96E000EF42080
:10152600DA6EDECF3DF0DDCF3EF03DC0D9FF3EC0E6
:10153600DAFF3C50DF1A1200F28EF28C380E0001F0
:10154600886F000E896FC3EC09F0360E0001886FB4
:10155600000E896FC3EC09F0340E0001886F000E8F
:10156600896FC3EC09F0320E0001886F000E896F97
:10157600C3EC09F07A0E0001826F000E836F03EC54
:1015860008F012000D500E10D8B4CCEF0AF0CEEFD2
:101596000AF0DAEF0AF002D8DAEF0AF00500FA6E7E
:1015A6000D50FD6E0E50FE6EFF6AFA5012001200CC
:1015B6003738392F3435362A3132332D63303D2BC7
:1015C600800F810F820F830F840F6EDC0B34168918
:1015D6000F8A0F8B0F8C0F8D0F920F930F940F9511
:0B15E6000F960F3200220012000200DE
:1015F200F2940BC03AF00CC03BF02DEC0BF0C5ECB2
:101602000AF01200A1920250B36E01C0B2FF44EC84
:101612000BF012009E900850CF6E07C0CEFF46EC32
:101622000BF012009E921D503AEC0BF045EC0BF0C1
:101632001200380E416E000E426E11EC0AF01200DA
:101642009FEC0AF023EF0BF03BEF00F0000180511A
:10165200D76E7FC0D6FF12003B50D76E3AC0D6FF7E
:101662001200F09242EC0BF01200F09043EC0BF0FF
:1016720012003B6E3BC0CBFF1200F29247EC0BF024
:0E1682001200120012001200120012001200DC
:020000040020DA
:08000000FFFFFFFFFFFFFFFF00
:020000040030CA
:0E000000FF071F1FFF8B85FF0FC00FE00F4093
:00000001FF
