:020000040000FA
:040000003BEF00F0E2
:060008004D82A7EF09F094
:100018004D80D8CF3DF0E8CF3EF0E0CF3FF0F0A6DE
:1000280018EF00F01AEF00F023EF00F0F0A01FEF38
:1000380000F021EF00F023EF00F006EC0BF0F0A841
:1000480028EF00F02AEF00F033EF00F0F0A22FEFD6
:1000580000F031EF00F033EF00F002EC0BF03FC09E
:10006800E0FF3EC0E8FF3DC0D8FF4D9010002AEFEA
:020078000AF08C
:0510000000256900005D
:10100600D59E73C0D9FF74C0DAFF0001DFA00EEFD2
:1010160008F010EF08F013EF08F0D58C14EF08F085
:10102600D59C73C0D9FF74C0DAFFDFA21DEF08F0AC
:101036001FEF08F022EF08F0D59A32EF08F0D58AB4
:1010460073C0D9FF74C0DAFFDFA82CEF08F02EEFCB
:1010560008F031EF08F0D58832EF08F0D59873C064
:10106600D9FF74C0DAFFDFA43BEF08F03DEF08F0CC
:101076004DEF08F0D59673C0D9FF74C0DAFFDF389C
:10108600E832070B756FD5507519F80B7519D56EC3
:101096004EEF08F0D58673C0D9FF74C0DAFFDFA61D
:1010A60057EF08F059EF08F069EF08F020EE03F06B
:1010B6007351D9267451DA22DECF44F0DDCF45F0E4
:1010C600F28EF28CF294F28A6EEF08F0F29A000E2B
:1010D600446E000E456E20EE01F07351D926745110
:1010E600DA22DECF70F0DDCF71F0F7EC0AF0000106
:1010F60020EE01F07351D9267451DA22DECF42F088
:10110600DDCF43F0D58E12000001786F070E000187
:10111600706590EF08F092EF08F0DBEF08F0F0EF63
:1011260008F070C072F0010E736F722B9DEF08F01D
:10113600D8907337722F9BEF08F000017351FF0AA6
:10114600746F7851020D0B0EF324D96E000EF42045
:10115600DA6EDECF75F0DDCF76F075C0D9FF76C0DA
:10116600DAFF7451DF16F0EF08F070C072F0010E6E
:10117600736F722BC1EF08F0D8907337722FBFEFE1
:1011860008F000017851020D0B0EF324D96E000E03
:10119600F420DA6EDECF74F0DDCF75F074C0D9FFBF
:1011A60075C0DAFF7351DF12B6EF08F0F0EF08F002
:1011B6007151726F736B7351000AD8B4E5EF08F082
:1011C600D9EF08F07251000AD8B494EF08F0010A7A
:1011D600D8B4B8EF08F0D9EF08F012000001786F24
:1011E600070E00017065FAEF08F0FCEF08F043EF18
:1011F60009F058EF09F070C072F0010E736F722B90
:1012060007EF09F0D8907337722F05EF09F0000148
:101216007351FF0A746F7851020D150EF324D96EBF
:10122600000EF420DA6EDECF75F0DDCF76F075C0F5
:10123600D9FF76C0DAFF7451DF1658EF09F070C097
:1012460072F0010E736F722B2BEF09F0D890733783
:10125600722F29EF09F000017851020D150EF324C3
:10126600D96E000EF420DA6EDECF74F0DDCF75F0A5
:1012760074C0D9FF75C0DAFF7351DF1220EF09F091
:101286007151726F736B7351000AD8B44DEF09F048
:1012960058EF09F07251000AD8B4FEEF08F0010ABF
:1012A600D8B422EF09F058EF09F012000001795185
:1012B6007A11D8B461EF09F063EF09F0A6EF09F0EF
:1012C60079C0D9FF7AC0DAFFDF500F0B7B6F050EAE
:1012D6007B6170EF09F072EF09F0A6EF09F079C0B3
:1012E600D9FF7AC0DAFFDF380F0B7B6F070E7B65FD
:1012F6007FEF09F081EF09F083EF09F0A6EF09F01F
:1013060079C0D9FF7AC0DAFFDF380F0B706F000E95
:10131600716F79C0D9FF7AC0DAFFDF500F0BF1EC9D
:1013260008F079C0D9FF7AC0DAFF0001DF380F0B69
:10133600706F000E716F79C0D9FF7AC0DAFFDF5087
:101346000F0B87EC08F01200FACF37F0FBCF38F01E
:10135600D9CF39F0DACF3AF0F3CF3BF0F4CF3CF007
:10136600F2A8B8EF09F0BAEF09F0C3EF09F0F2A25C
:10137600BFEF09F0C1EF09F0C3EF09F00EEC0BF077
:10138600F2AAC8EF09F0CAEF09F0D3EF09F0F2A408
:10139600CFEF09F0D1EF09F0D3EF09F0D1EC0AF065
:1013A6009DA2D8EF09F0DAEF09F0E3EF09F09EA26B
:1013B600DFEF09F0E1EF09F0E3EF09F0E3EC0AF003
:1013C6003CC0F4FF3BC0F3FF3AC0DAFF39C0D9FF97
:1013D60038C0FBFF37C0FAFF4D921100335034106E
:1013E600D8B4F8EF09F0FAEF09F029EF0AF033C0A4
:1013F600D9FF34C0DAFFDF500F0B356E050E3560AE
:1014060007EF0AF009EF0AF029EF0AF033C0D9FF17
:1014160034C0DAFFDF380F0B356E070E356416EF72
:101426000AF018EF0AF01AEF0AF029EF0AF033C0B3
:10143600D9FF34C0DAFFDF380F0B2C6E33C0D9FF6B
:1014460034C0DAFFDF500F0B55EC0AF01200B60E6F
:10145600F66E150EF76E000EF86E00EE60F010EEEA
:1014660010F00900F5CFEEFFE550E150FAE1760EF7
:10147600F66E150EF76E000EF86E00EE01F010EE29
:101486002BF00900F5CFEEFFE550E150FAE100EE52
:1014960040F00D0EEE6AE806FDE14D904D9200011A
:1014A600F1EF0AF0326E070E2C645CEF0AF05EEF85
:1014B6000AF060EF0AF07EEF0AF02CC02DF0010E64
:1014C6002E6E2D2A69EF0AF0D8902E362D2E67EF54
:1014D6000AF03250020D0B0EF324D96E000EF420E2
:1014E600DA6EDECF2FF0DDCF30F02FC0D9FF30C05F
:1014F600DAFF2E50DF1A1200F28EF28C2A0E00014D
:10150600796F000E7A6F59EC09F0280E0001796F99
:10151600000E7A6F59EC09F0260E0001796F000E65
:101526007A6F59EC09F0240E0001796F000E7A6F7C
:1015360059EC09F01F0E0001736F000E746F03EC77
:1015460008F0120044504510D8B4ACEF0AF0AEEFE4
:101556000AF0BAEF0AF002D8BAEF0AF00500FA6EFE
:101566004450FD6E4550FE6EFF6AFA50120012009E
:10157600800F810F820F830F840F890F8A0F8B0FC5
:101586008C0F8D0F920F930F940F950F960F6EDCA5
:0B1596000BD4153200220012000200EE
:1015A200F29442C02CF043C02DF0FDEC0AF0A5EC01
:1015B2000AF012003738392F3435362A3132332DBA
:1015C20063303D2B9E924C500AEC0BF014EC0BF066
:1015D20012002A0E336E000E346EF1EC09F0120086
:1015E2007FEC0AF0F3EF0AF03BEF00F000017151DB
:1015F200D76E70C0D6FF12002D50D76E2CC0D6FF0A
:101602001200F09212EC0BF01200F09013EC0BF0BF
:1016120012002D6E2DC0CBFF1200F29215EC0BF0D2
:0A1622001200120012001200120064
:020000040020DA
:08000000FFFFFFFFFFFFFFFF00
:020000040030CA
:0E000000FF071F1FFF8B85FF0FC00FE00F4093
:00000001FF
