:020000040000FA
:0400000042EF7CF05F
:10F7E300800F810F820F830F840F890F8A0F8B0F76
:10F7F3008C0F8D0F920F930F940F950F960F22007E
:10F803001200020003230E2F6E000E306E2BEC7DD0
:10F81300F0210E2F6E000E306E2BEC7DF01F0E2F9D
:10F823006E000E306E2BEC7DF01200230E2F6E0057
:10F833000E306EF0EC7CF0210E2F6E000E306EF069
:10F84300EC7CF01F0E2F6E000E306EF0EC7CF0128D
:10F8530000230E2F6E000E306E2BEC7DF00B0E345A
:10F863006E260E336E5E0EE82EFED7332EFCD73493
:10F873002EFAD7230E2F6E000E306EF0EC7CF012B2
:10F8830000E30EF66EF70EF76E000EF86E00EE0153
:10F89300F010EE25F00900F5CFEEFFE550E150FA48
:10F8A300E13A6A396A386A376A000EF86E00016F06
:10F8B300EF7FF02FC0D9FF30C0DAFFDF500F0B31DD
:10F8C3006E050E316068EF7CF06AEF7CF086EF7CAA
:10F8D300F02F503010D8A471EF7CF073EF7CF075EB
:10F8E300EF7CF086EF7CF02FC0D9FF30C0DAFFDF6A
:10F8F30038070B266E010E276E2FC0D9FF30C0DAF2
:10F90300FFDF500F0BA5EC7EF012002E6E070E26C4
:10F91300648EEF7CF090EF7CF092EF7CF0B5EF7C9F
:10F92300F026C029F02E50020D010EF324D96E00EB
:10F933000EF420DA6EDECF2AF0DDCF2BF02AC0D909
:10F94300FF2BC0DAFFDF502C6E292AABEF7CF0D8F7
:10F95300902C32292EA9EF7CF02C50010B27C0D913
:10F96300FF28C0DAFFDF6E1200210E2F6E000E306B
:10F973006E2BEC7DF00B0E346E260E336E5E0EE8AE
:10F983002EFED7332EFCD7342EFAD7210E2F6E003E
:10F993000E306EF0EC7CF00B0E346E260E336E5E82
:10F9A3000EE82EFED7332EFCD7342EFAD7210E2F96
:10F9B3006E000E306E2BEC7DF00B0E346E260E3384
:10F9C3006E5E0EE82EFED7332EFCD7342EFAD721E7
:10F9D3000E2F6E000E306EF0EC7CF012002F5030C4
:10F9E30010D8B4F7EF7CF0F9EF7CF02AEF7DF02F1D
:10F9F300C0D9FF30C0DAFFDF500F0B316E050E3177
:10FA03006006EF7DF008EF7DF02AEF7DF02FC0D97F
:10FA1300FF30C0DAFFDF380F0B316E070E3164158C
:10FA2300EF7DF017EF7DF019EF7DF02AEF7DF02FDA
:10FA3300C0D9FF30C0DAFFDF380F0B266E000E2768
:10FA43006E2FC0D9FF30C0DAFFDF500F0B09EC7FF8
:10FA5300F012002F503010D8B432EF7DF034EF7D28
:10FA6300F065EF7DF02FC0D9FF30C0DAFFDF500F14
:10FA73000B316E050E316041EF7DF043EF7DF06594
:10FA8300EF7DF02FC0D9FF30C0DAFFDF380F0B3125
:10FA93006E070E316450EF7DF052EF7DF054EF7D31
:10FAA300F065EF7DF02FC0D9FF30C0DAFFDF380FEC
:10FAB3000B266E010E276E2FC0D9FF30C0DAFFDF91
:10FAC300500F0B09EC7FF012002FC0D9FF30C0DAC2
:10FAD300FFDF500F0B336E050E336073EF7DF07550
:10FAE300EF7DF0A4EF7DF02F503010D8A47CEF7D94
:10FAF300F07EEF7DF080EF7DF0A4EF7DF02FC0D995
:10FB0300FF30C0DAFFDF38070B266E31C027F03233
:10FB1300C028F02FC0D9FF30C0DAFFDF500F0B87AA
:10FB2300EC7CF031C0D9FF32C0DAFFDF50336E2FE7
:10FB3300C0D9FF30C0DAFF33323332DF5033187F9E
:10FB43000B3318DF6E12002F503010D8B4ACEF7D9A
:10FB5300F0AEEF7DF0F0EF7DF02FC0D9FF30C0DACB
:10FB6300FFDF500F0B316E050E3160BBEF7DF0BD33
:10FB7300EF7DF0F0EF7DF02FC0D9FF30C0DAFFDF6B
:10FB8300380F0B316E070E3164CAEF7DF0CCEF7D79
:10FB9300F0CEEF7DF0F0EF7DF02FC0D9FF30C0DA6B
:10FBA300FFDF380F0B266E000E276E2FC0D9FF30F4
:10FBB300C0DAFFDF500F0BA5EC7EF02FC0D9FF306A
:10FBC300C0DAFFDF380F0B266E000E276E2FC0D969
:10FBD300FF30C0DAFFDF500F0B09EC7FF01200009B
:10FBE3000E2B6E27BEFAEF7DF0F8EF7DF000EF7E6F
:10FBF300F0266C271ED8B0272A010E2B6E29BE07CC
:10FC0300EF7EF005EF7EF00BEF7EF0286C291ED817
:10FC1300B0292A28502910D8B412EF7EF014EF7EB1
:10FC2300F038EF7EF0010E2A6E1CEF7EF0D890289C
:10FC33003629362A2A29AE21EF7EF023EF7EF018EB
:10FC4300EF7EF02850265C29502758D8A02CEF7E51
:10FC5300F02EEF7EF032EF7EF02850265E295027FB
:10FC63005AD890293228322A2E23EF7EF02B50D8EF
:10FC7300B43EEF7EF040EF7EF044EF7EF0266C273B
:10FC83001ED8B0272A26C026F027C027F012001F4F
:10FC93000E2F6E000E306E2BEC7DF00B0E346E26A5
:10FCA3000E336E5E0EE82EFED7332EFCD7342EFABB
:10FCB300D71F0E2F6E000E306EF0EC7CF00B0E345F
:10FCC3006E260E336E5E0EE82EFED7332EFCD7342F
:10FCD3002EFAD71F0E2F6E000E306E2BEC7DF00B1D
:10FCE3000E346E260E336E5E0EE82EFED7332EFCD8
:10FCF300D7342EFAD71F0E2F6E000E306EF0EC7C29
:10FD0300F00B0E346E260E336E5E0EE82EFED733E6
:10FD13002EFCD7342EFAD71F0E2F6E000E306E2B0B
:10FD2300EC7DF00B0E346E260E336E5E0EE82EFE67
:10FD3300D7332EFCD7342EFAD71F0E2F6E000E307A
:10FD43006EF0EC7CF012002E6E070E2664ACEF7E94
:10FD5300F0AEEF7EF0F3EF7EF008EF7FF026C028E1
:10FD6300F0010E296E282AB9EF7EF0D890293628A3
:10FD73002EB7EF7EF02950FF0A2A6E2E50020D1582
:10FD83000EF324D96E000EF420DA6EDECF2BF0DDF5
:10FD9300CF2CF02BC0D9FF2CC0DAFF2A50DF160876
:10FDA300EF7FF026C028F0010E296E282ADCEF7EB3
:10FDB300F0D8902936282EDAEF7EF02E50020D155A
:10FDC3000EF324D96E000EF420DA6EDECF2AF0DDB6
:10FDD300CF2BF02AC0D9FF2BC0DAFF2950DF12D175
:10FDE300EF7EF02750286E296A2950000AD8B4FD07
:10FDF300EF7EF008EF7FF02850000AD8B4B0EF7E12
:10FE0300F0010AD8B4D3EF7EF008EF7FF012002E92
:10FE13006E070E266410EF7FF012EF7FF059EF7F2D
:10FE2300F06EEF7FF026C028F0010E296E282A1D00
:10FE3300EF7FF0D8902936282E1BEF7FF02950FF53
:10FE43000A2A6E2E50020D0B0EF324D96E000EF407
:10FE530020DA6EDECF2BF0DDCF2CF02BC0D9FF2CB8
:10FE6300C0DAFF2A50DF166EEF7FF026C028F001BC
:10FE73000E296E282A40EF7FF0D8902936282E3E8F
:10FE8300EF7FF02E50020D0B0EF324D96E000EF40B
:10FE930020DA6EDECF2AF0DDCF2BF02AC0D9FF2B7C
:10FEA300C0DAFF2950DF1235EF7FF06EEF7FF027C6
:10FEB30050286E296A2950000AD8B463EF7FF0579F
:10FEC300EF7FF02850000AD8B414EF7FF0010AD86E
:10FED300B437EF7FF057EF7FF01200230E2F6E0041
:10FEE3000E306EA5EC7DF0210E2F6E000E306EA548
:10FEF300EC7DF01F0E2F6E000E306EA5EC7DF0250D
:10FF03000E2F6E000E306E5BEC7CF0250E2F6E0014
:10FF13000E306E3A0E316E000E326E66EC7DF025B9
:10FF23000E2F6E000E306E3A0E316E000E326E667C
:10FF3300EC7DF03A04D8A4A1EF7FF0A3EF7FF0F2B9
:10FF4300EF7FF03750D8A4A9EF7FF0ABEF7FF0F24B
:10FF5300EF7FF039C026F0276A000E296E050E28C0
:10FF63006EF1EC7DF02650386ECCEF7FF02AEC7CFE
:10FF7300F0EDEF7FF0B6EC7CF0EDEF7FF049EC7E37
:10FF8300F0EDEF7FF004EC7CF0EDEF7FF017EC7C0D
:10FF9300F0EDEF7FF03850356E366A3650000AD8F0
:10FFA300B4D6EF7FF0EDEF7FF03550000AD8B4B848
:10FFB300EF7FF0010AD8B4BCEF7FF0030AD8B4C0D6
:10FFC300EF7FF0010AD8B4C4EF7FF0070AD8B4C8B2
:10FFD300EF7FF0EDEF7FF0392A010E376E91EF7F5F
:10FFE300F03A50D8A4F8EF7FF0FAEF7FF091EF7F6B
:0DFFF300F0000E376E91EF7FF000EF00F090
:020000040020DA
:08000000FFFFFFFFFFFFFFFF00
:020000040030CA
:0E000000FF071F1FFF8B85FF0FC00FE00F4093
:00000001FF
