:020000040000FA
:0400000002EF11F00A
:0F1000000054696D65203A00256900202000002A
:101010001EC036F01FC037F020C038F021C039F0B4
:1010200022C03AF023C03BF024C03CF025C03DF084
:101030003DBE1DEF08F020EF08F0010E21EF08F093
:10104000000E346E356A34503510D8B42AEF08F0EB
:101050002CEF08F03CEF08F03D1E3C1E3B1E3A1EF4
:10106000391E381E371E366C000E372238223922C0
:101070003A223B223C223D2200018EBF42EF08F083
:1010800044EF08F045EF08F08F938EBF52EF08F061
:101090008E5106E18D05D8B050EF08F052EF08F000
:1010A00058EF08F0000E316E010E306E5CEF08F064
:1010B0008DC030F08EC031F08BC032F08CC033F078
:1010C00034503510D8A467EF08F069EF08F070EFDE
:1010D00008F08FA56EEF08F070EF08F073EF08F0DE
:1010E0003206D8A03306000E3F6E1F0E3E6E000E75
:1010F000B06FF7EF08F03E06D8A03F06910E3E24F1
:10110000D96E000E3F20DA6E36C001F037C002F013
:1011100038C003F039C004F03AC005F03BC006F017
:101120003CC007F03DC008F00A0E096E000E0A6EC2
:10113000000E0B6E000E0C6E000E0D6E000E0E6E8D
:10114000000E0F6E000E106E9FEC0CF001C026F02A
:1011500002C027F003C028F004C029F005C02AF01F
:1011600006C02BF007C02CF008C02DF026C013F0ED
:1011700028C014F0C4EC10F01350300FDF6E3006AE
:10118000D8A031063206D8A0330636C001F037C0E9
:1011900002F038C003F039C004F03AC005F03BC09B
:1011A00006F03CC007F03DC008F00A0E096E000EC4
:1011B0000A6E000E0B6E000E0C6E000E0D6E000E11
:1011C0000E6E000E0F6E000E106E1BEC0BF001C0C9
:1011D00036F002C037F003C038F004C039F005C063
:1011E0003AF006C03BF007C03CF008C03DF03FBEFF
:1011F00002EF09F03F5008E13E04D8A002EF09F0E9
:1012000004EF09F035EF09F0365037103810391077
:101210003A103B103C103D10D8A411EF09F013EF29
:1012200009F07BEF08F031BE20EF09F0315006E104
:101230003004D8B01EEF09F020EF09F07BEF08F082
:1012400033BE2BEF09F0335008E13204D8A02BEF66
:1012500009F02DEF09F035EF09F000018FB333EFFE
:1012600009F035EF09F07BEF08F034503510D8A4C1
:101270003CEF09F03EEF09F046EF09F000018FA5C1
:1012800044EF09F046EF09F064EF09F03E06D8A0FC
:101290003F0634503510D8A450EF09F052EF09F052
:1012A00058EF09F0000E2F6E2B0E2E6E5CEF09F03A
:1012B000000E2F6E2D0E2E6E910E3E24D96E000E56
:1012C0003F20DA6E2EC0DFFF1CC011F01DC012F0EF
:1012D000910E3E24136E000E3F20146E32C015F0A6
:1012E00033C016F080EC0EF011C01CF012C01DF0DF
:1012F000120042C0D9FF43C0DAFFDECFF6FFDDCFD8
:10130000F7FF0800F550250AD8A489EF09F08BEF04
:1013100009F037EF0AF042C0D9FF43C0DAFFDE2AF6
:10132000000EDD22000E00018C6F000E8B6F8BC053
:101330008FF08CC090F08D698E6942C0D9FF43C098
:10134000DAFFDECFF6FFDDCFF7FF0800F550640AC5
:10135000D8B4ADEF09F0AFEF09F0C1EF09F042C02A
:10136000D9FF43C0DAFFDECFF6FFDDCFF7FF08007D
:10137000F550690AD8A4BFEF09F0C1EF09F001EFF9
:101380000AF042C0D9FF43C0DAFFDE2A000EDD2298
:1013900044C0D9FF45C0DAFFDFCF46F0020EDE269B
:1013A000DFCF47F0000EDD2246C0D9FF47C0DAFF8D
:1013B000DECF48F0DDCF49F0000E49BEFF0E4A6E89
:1013C0004B6E4C6E4D6E4E6E4F6E40C01CF041C069
:1013D0001DF048C01EF049C01FF04AC020F04BC0AD
:1013E00021F04CC022F04DC023F04EC024F04FC07D
:1013F00025F008EC08F01CC040F01DC041F052EF91
:101400000AF042C0D9FF43C0DAFFDECFF6FFDDCFDE
:10141000F7FF0800F550250AD8A411EF0AF013EFE2
:101420000AF02AEF0AF042C0D9FF43C0DAFFDE2AF1
:10143000000EDD22000E026E250E016E40C003F08C
:1014400041C004F0B7EC0DF0000E416E010E406E8D
:1014500052EF0AF042C0D9FF43C0DAFFDE2A000E85
:10146000DD22000E416E000E406E52EF0AF042C0C7
:10147000D9FF43C0DAFFDECFF6FFDDCFF7FF08006C
:10148000F550016E026A40C003F041C004F0B7ECB1
:101490000DF042C0D9FF43C0DAFFDE2A000EDD2284
:1014A00024EF0AF01200CF0E106E000E116EDFEC6A
:1014B0000BF0CF0E166E000E176E010E186E010E99
:1014C000196E010E1A6E100E1B6EE3EC0EF0000E7C
:1014D0000001846F000E836F000E866F000E856F13
:1014E000000E886F000E876F6B0E5E6E000E5F6ED3
:1014F000835149EC11F0730E5E6E000E5F6E0001B9
:10150000855149EC11F07B0E5E6E000E5F6E00019E
:10151000875149EC11F0CF0E166E000E176E010EBA
:10152000186E070E196E6B0E1A6E000E1B6EE3EC32
:101530000EF0CF0E166E000E176E010E186E090E0D
:10154000196E060E1A6E100E1B6EE3EC0EF0CF0E27
:10155000166E000E176E010E186E0A0E196E730EBF
:101560001A6E000E1B6EE3EC0EF0CF0E166E000E20
:10157000176E010E186E0C0E196E060E1A6E100EF6
:101580001B6EE3EC0EF0CF0E166E000E176E010E02
:10159000186E0D0E196E7B0E1A6E000E1B6EE3ECAC
:1015A0000EF00001874B882B885109E13C0E875DC6
:1015B000D8A0DDEF0AF0DFEF0AF074EF0AF0CF0EEB
:1015C000166E000E176E010E186E0D0E196E0B0EB4
:1015D0001A6E100E1B6EE3EC0EF00001854B862B8D
:1015E000865109E13C0E855DD8A0F9EF0AF0FBEFCA
:1015F0000AF070EF0AF0CF0E166E000E176E010E95
:10160000186E0A0E196E0C0E1A6E100E1B6EE3EC9D
:101610000EF00001834B842B845109E10C0E835D95
:10162000D8A015EF0BF017EF0BF06CEF0AF067EF97
:101630000AF000EF00F0000E126E10BE24EF0BF067
:1016400022EF0BF036EF0BF0101E0F1E0E1E0D1EBC
:101650000C1E0B1E0A1E096C000E0A220B220C2205
:101660000D220E220F221022010E126E08BE3DEF37
:101670000BF03BEF0BF04FEF0BF0081E071E061EA2
:10168000051E041E031E021E016C000E0222032210
:1016900004220522062207220822010E121A20EE39
:1016A00013F0070EDE6AE806FDE209500A100B107F
:1016B0000C100D100E100F101010D8B462EF0BF0BC
:1016C00064EF0BF0B6EF0BF0010E116E72EF0BF042
:1016D000D89009360A360B360C360D360E360F36D4
:1016E0001036112A10AE77EF0BF079EF0BF068EFA0
:1016F0000BF0D890133614361536163617361836C2
:1017000019361A360950015C0A5002580B5003581A
:101710000C5004580D5005580E5006580F500758DD
:1017200010500858D8A097EF0BF099EF0BF0AAEFE4
:101730000BF00950015E0A50025A0B50035A0C502C
:10174000045A0D50055A0E50065A0F50075A1050A1
:10175000085A1380D89010320F320E320D320C32EC
:101760000B320A320932112E79EF0BF01250D8B435
:10177000BCEF0BF0BEEF0BF0CEEF0BF01A1E191EF4
:10178000181E171E161E151E141E136C000E142292
:10179000152216221722182219221A2213C001F02C
:1017A00014C002F015C003F016C004F017C005F015
:1017B00018C006F019C007F01AC008F01200000E99
:1017C000016E10C0D9FF11C0DAFFDF500F0B7FECA4
:1017D0000FF0000E016E10C0D9FF11C0DAFFDF500C
:1017E0000F0BE4EC10F020EE01F01050D926115050
:1017F000DA22DF38070B016E000E026E10C0D9FF2F
:1018000011C0DAFFDF380F0B1CEC0EF020EE01F0F8
:101810001050D9261150DA22DF38070B016E000E66
:10182000026E10C0D9FF11C0DAFFDF380F0B51EC88
:101830000DF020EE02F01050D9261150DA22DF50C0
:10184000070B016E000E026E20EE01F01050D9263B
:101850001150DA22DF500F0B1CEC0EF020EE02F0DC
:101860001050D9261150DA22DF50070B016E000EFE
:10187000026E20EE01F01050D9261150DA22DF500E
:101880000F0B51EC0DF0680E126EE40EE82EFED731
:10189000122EFCD700F000F010C00CF011C00DF0BB
:1018A000380E0E6EF9EC0FF00D0E126EFC0EE82ED7
:1018B000FED7122EFCD710C00CF011C00DF0380E60
:1018C0000E6EF9EC0FF0C80EE82EFED710C00CF02B
:1018D00011C00DF0380E0E6EF9EC0FF010C00CF0C8
:1018E00011C00DF0010E0E6EF9EC0FF010C00CF0EF
:1018F00011C00DF0020E0E6EF9EC0FF010C00CF0DE
:1019000011C00DF0060E0E6EF9EC0FF010C00CF0C9
:1019100011C00DF00C0E0E6EF9EC0FF010C00CF0B3
:1019200011C00DF0380E0E6EF9EC0FF010C00CF077
:1019300011C00DF0800E0E6EF9EC0FF01200000ECB
:10194000126E08BEA8EF0CF0A6EF0CF0BAEF0CF088
:10195000081E071E061E051E041E031E021E016C25
:10196000000E022203220422052206220722082258
:10197000010E126E10BEC1EF0CF0BFEF0CF0D1EFF4
:101980000CF0101E0F1E0E1E0D1E0C1E0B1E0A1E2E
:10199000096C000E0A220B220C220D220E220F22AD
:1019A000102209500A100B100C100D100E100F1001
:1019B0001010D8B4DEEF0CF0E0EF0CF028EF0DF0D3
:1019C000010E116EEEEF0CF0D89009360A360B3688
:1019D0000C360D360E360F361036112A10AEF3EFD8
:1019E0000CF0F5EF0CF0E4EF0CF00950015C0A503C
:1019F00002580B5003580C5004580D5005580E5007
:101A000006580F50075810500858D8A00AEF0DF08C
:101A10000CEF0DF01CEF0DF00950015E0A50025A58
:101A20000B50035A0C50045A0D50055A0E50065ACA
:101A30000F50075A1050085AD89010320F320E32F9
:101A40000D320C320B320A320932112EF5EF0CF046
:101A50001250D8B42EEF0DF030EF0DF040EF0DF036
:101A6000081E071E061E051E041E031E021E016C14
:101A7000000E022203220422052206220722082247
:101A800001C001F002C002F003C003F004C004F082
:101A900005C005F006C006F007C007F008C008F052
:101AA0001200096E070E016458EF0DF05AEF0DF0A9
:101AB000A1EF0DF0B6EF0DF001C003F0010E046EC2
:101AC000032A65EF0DF0D8900436032E63EF0DF076
:101AD0000450FF0A056E0950020DBB0EF324D96EA7
:101AE000000EF420DA6EDECF06F0DDCF07F006C080
:101AF000D9FF07C0DAFF0550DF16B6EF0DF001C0C1
:101B000003F0010E046E032A88EF0DF0D89004361E
:101B1000032E86EF0DF00950020DBB0EF324D96E93
:101B2000000EF420DA6EDECF05F0DDCF06F005C042
:101B3000D9FF06C0DAFF0450DF127DEF0DF0B6EFDB
:101B40000DF00250036E046A0450000AD8B4ABEFE3
:101B50000DF09FEF0DF00350000AD8B45CEF0DF0CC
:101B6000010AD8B47FEF0DF09FEF0DF01200035083
:101B70000410D8B4BEEF0DF0C0EF0DF0C9EF0DF0BA
:101B800003500410D8A4C7EF0DF0C9EF0DF0CEEF4D
:101B90000DF0015059EC11F01BEF0EF020EE04F0A7
:101BA0000350D9260450DA22DE50DE10D8B4DBEF21
:101BB0000DF0DDEF0DF0F8EF0DF020EE04F0035026
:101BC000D9260450DA2210EE02F00350E126045028
:101BD000E222DE50E65CE650800A096EDE50800AA2
:101BE0000958D8B0F6EF0DF0F8EF0DF01BEF0EF03E
:101BF00020EE02F00350D9260450DA22DECF05F0A1
:101C0000DDCF06F003C0D9FF04C0DAFFDECF07F056
:101C1000DDCF08F005500724D96E06500820DA6E93
:101C200001C0DFFF20EE02F00350D9260450DA2273
:101C3000DE2A000EDD221200096E070E016423EF7A
:101C40000EF025EF0EF06AEF0EF07FEF0EF001C000
:101C500003F0010E046E032A30EF0EF0D890043624
:101C6000032E2EEF0EF00450FF0A056E0950020DF0
:101C7000C50EF324D96E000EF420DA6EDECF06F026
:101C8000DDCF07F006C0D9FF07C0DAFF0550DF1629
:101C90007FEF0EF001C003F0010E046E032A53EF34
:101CA0000EF0D8900436032E51EF0EF00950020DBD
:101CB000C50EF324D96E000EF420DA6EDECF05F0E7
:101CC000DDCF06F005C0D9FF06C0DAFF0450DF12F1
:101CD00048EF0EF00250036E046A0450000AD8B4B4
:101CE00074EF0EF07FEF0EF00350000AD8B427EF28
:101CF0000EF0010AD8B44AEF0EF07FEF0EF012009A
:101D000000018FA186EF0EF088EF0EF092EF0EF03B
:101D100013C00AF014C00BF011C00CF012C00DF08B
:101D2000A2EC10F016BE97EF0EF099EF0EF09FEFB9
:101D30000EF015C01AF016C01BF0A3EF0EF0000E47
:101D40001B6E000E1A6E000E196E000E186EB5EFA7
:101D50000EF0000E026E200E016E11C003F012C0D4
:101D600004F0B7EC0DF0184A192A1A50185C1950F3
:101D7000800A176E1B50800A1758D8A0C2EF0EF0C9
:101D8000C4EF0EF0A9EF0EF000018FB1CAEF0EF014
:101D9000CCEF0EF0D6EF0EF013C00AF014C00BF02B
:101DA00011C00CF012C00DF0A2EC10F013C001F045
:101DB00014C002F01DEC11F01A500124116E1B50DA
:101DC0000220126E120016C00CF017C00DF0020EA9
:101DD0000E6EF9EC0FF016C010F017C011F018C01D
:101DE00012F019C013F032EC0FF018EF0FF016C01C
:101DF0000CF017C00DF01AC0F6FF1BC0F7FF000E65
:101E0000F86E0F0EF76403D00800F55005D0F6CF3A
:101E1000E9FFF7CFEAFFEF500E6E7CEC10F01A4AA4
:101E20001B2A030E1C6E980EE82EFED71C2EFCD724
:101E30001AC0F6FF1BC0F7FF000EF86E0F0EF76416
:101E400003D00800F55005D0F6CFE9FFF7CFEAFF41
:101E5000EF500009D8A42FEF0FF031EF0FF0F7EF9C
:101E60000EF01200130661EF0FF010C00CF011C05D
:101E70000DF01350800F0E6EF9EC0FF07EEF0FF0A7
:101E800010C00CF011C00DF01350C00F0E6EF9EC25
:101E90000FF07EEF0FF010C00CF011C00DF01350DA
:101EA000940F0E6EF9EC0FF07EEF0FF010C00CF0F7
:101EB00011C00DF01350D40F0E6EF9EC0FF07EEF41
:101EC0000FF01250146E156A1550000AD8B46BEF5B
:101ED0000FF07EEF0FF01450010AD8B435EF0FF079
:101EE000030AD8B440EF0FF0010AD8B44BEF0FF05B
:101EF000070AD8B456EF0FF07EEF0FF01200056E10
:101F0000040E056486EF0FF088EF0FF0B2EF0FF0CC
:101F1000C7EF0FF00550020DC50EF324D96E000E69
:101F2000F420DA6EDECF02F0DDCF03F002C0D9FF7D
:101F300003C0DAFF000EDF6EC7EF0FF00550020D91
:101F4000C50EF324D96E000EF420DA6EDECF02F057
:101F5000DDCF03F002C0D9FF03C0DAFFFF0EDF6E52
:101F60009CEF0FF00150026E036A0350000AD8B4D0
:101F7000BCEF0FF0C7EF0FF00250000AD8B48AEFA1
:101F80000FF0010AD8B49EEF0FF0C7EF0FF0120068
:101F900052C056F053C057F0000E00018A6F000E79
:101FA000896FE6EF0FF050C040F051C041F0560E7F
:101FB000426E000E436E54C044F055C045F079ECBB
:101FC00009F040500001892741508A2356C0F6FF8E
:101FD00057C0F7FF0800F5500009D8A4F2EF0FF042
:101FE000F4EF0FF0D3EF0FF089C050F08AC051F03A
:101FF000120020EE02F00C50D9260D50DA22DF50EC
:10200000070B016E000E026E20EE01F00C50D92677
:102010000D50DA22DF500F0B51EC0DF00EC001F025
:102020000CC0D9FF0DC0DAFFDF500F0BE4EC10F04D
:102030000CC00AF00DC00BF028EC10F0060E0F6E6D
:10204000300EE82EFED70F2EFCD700F000F0120065
:1020500020EE01F00A50D9260B50DA22DF38070BA8
:10206000016E010E026E0AC0D9FF0BC0DAFFDF3825
:102070000F0B51EC0DF0850EE82EFED700F020EE90
:1020800001F00A50D9260B50DA22DF38070B016E17
:10209000000E026E0AC0D9FF0BC0DAFFDF380F0B4B
:1020A00051EC0DF012005C0E0001626F000E636FC8
:1020B00058C064F059C065F0000E676F000E666F7F
:1020C000000E696F000E686F640E506E000E516E48
:1020D0005AC052F05BC053F0620E546E000E556E43
:1020E000C8EC0FF0000166515824D96E6751592091
:1020F000DA6E000EDF6E120020EE02F00C50D926D0
:102100000D50DA22DF50070B016E010E026E20EE39
:1021100001F00C50D9260D50DA22DF500F0B51EC94
:102120000DF00EC001F00CC0D9FF0DC0DAFFDF507A
:102130000F0BE4EC10F00CC00AF00DC00BF028EC13
:1021400010F01200000E106E000E0F6EB3EF10F0C4
:102150000EC001F0026A0CC003F00DC004F0B7EC31
:102160000DF00F4A102A0F500A24D96E10500B2080
:10217000DA6EDF500E6E0E50D8A4C1EF10F0C3EF30
:1021800010F0A8EF10F0120014BED1EF10F01450B0
:1021900006E11304D8B0CFEF10F0D1EF10F0DFEF6D
:1021A00010F013C015F014C016F0151E161E154AB7
:1021B000162A15C013F016C014F0E3EF10F013C088
:1021C00013F014C014F01200056E040E0564EBEF5A
:1021D00010F0EDEF10F0EFEF10F001EF11F00550FF
:1021E000020DBB0EF324D96E000EF420DA6EDECFA2
:1021F00002F0DDCF03F002C0D9FF03C0DAFF01C057
:10220000DFFF1200700EF66E220EF76E000EF86EF3
:1022100000EEB1F010EE22F00900F5CFEEFFE55030
:10222000E150FAE100EE89F0280EEE6AE806FDE1E1
:10223000000EF86E000153EF0AF001C003F002C077
:1022400004F025EF11F0014A022A01C0D9FF02C0B3
:10225000DAFFDF50D8A42FEF11F031EF11F023EFA8
:1022600011F00350015C016E04500258026E12001E
:10227000800F810F820F830F840F890F8A0F8B0FBE
:102280008C0F8D0F920F930F940F950F960F3213A3
:10229000000000016A6F5EC058F05FC059F0080E80
:1022A0005A6E100E5B6E6AC05CF05D6A53EC10F003
:0422B0001200120006
:020000040020DA
:08000000FFFFFFFFFFFFFFFF00
:020000040030CA
:0E000000FF071F1FFF8B85FF0FC00FE00F4093
:00000001FF
