:020000040000FA
:0400000029EF01F0F3
:06000800558252EF10F0DA
:100018005580D8CF08F0E8CF09F0E0CF0AF0F0A675
:1000280018EF00F01AEF00F023EF00F0F0A01FEF38
:1000380000F021EF00F023EF00F001EC14F0F0A83D
:1000480028EF00F02AEF00F033EF00F0F0A22FEFD6
:1000580000F031EF00F033EF00F0FDEC13F0F2A602
:1000680038EF00F03AEF00F04EEF00F0F2A03FEF6B
:1000780000F041EF00F04EEF00F081A846EF00F0ED
:1000880048EF00F04EEF00F0010E536EF9EC13F05C
:100098006FEF00F0F2A653EF00F055EF00F06FEFAE
:1000A80000F0F2A05AEF00F05CEF00F06FEF00F004
:1000B80081B861EF00F063EF00F06FEF00F05304D8
:1000C800D8A469EF00F06BEF00F06FEF00F0000EBE
:1000D800536E4AEF00F0F2A674EF00F076EF00F0EE
:1000E8008AEF00F0F2A07BEF00F07DEF00F08AEFDE
:1000F80000F081AA82EF00F084EF00F08AEF00F0B0
:10010800010E526EF5EC13F0ABEF00F0F2A68FEF94
:1001180000F091EF00F0ABEF00F0F2A096EF00F0E6
:1001280098EF00F0ABEF00F081BA9DEF00F09FEF81
:1001380000F0ABEF00F05204D8A4A5EF00F0A7EF51
:1001480000F0ABEF00F0000E526E86EF00F0F2A662
:10015800B0EF00F0B2EF00F0C6EF00F0F2A0B7EF9A
:1001680000F0B9EF00F0C6EF00F081ACBEEF00F090
:10017800C0EF00F0C6EF00F0010E516EF1EC13F085
:10018800E7EF00F0F2A6CBEF00F0CDEF00F0E7EFDD
:1001980000F0F2A0D2EF00F0D4EF00F0E7EF00F0AB
:1001A80081BCD9EF00F0DBEF00F0E7EF00F051047D
:1001B800D8A4E1EF00F0E3EF00F0E7EF00F0000E65
:1001C800516EC2EF00F0F2A6ECEF00F0EEEF00F097
:1001D80002EF01F0F2A0F3EF00F0F5EF00F002EF0C
:1001E80001F081AEFAEF00F0FCEF00F002EF01F051
:1001F800010E506EEDEC13F021EF01F0F2A607EFBF
:1002080001F009EF01F021EF01F0F2A00EEF01F08B
:1002180010EF01F021EF01F081BE15EF01F017EFAB
:1002280001F021EF01F05004D8A41DEF01F01FEFF9
:1002380001F021EF01F0FCEF00F00AC0E0FF09C077
:0E024800E8FF08C0D8FF5590100009EF13F032
:0510000000256900005D
:101006003550800B3E6E35503524406E34AE0EEFB3
:1010160008F010EF08F011EF08F040804050D8B407
:1010260017EF08F019EF08F02EEF08F04028D8A4C3
:101036001FEF08F021EF08F029EF08F0000E326EDE
:10104600000E336E000E346E000E356E348E000EBA
:10105600356E36EF08F0000E326E000E336E000E5F
:10106600346E000E356E3950800B3F6E3E503F1881
:10107600D8B440EF08F042EF08F043EF08F03E8C9A
:10108600395039243F6E38AE4BEF08F04DEF08F07B
:101096004EEF08F03F803F50D8B454EF08F056EFBB
:1010A60008F06BEF08F03F28D8A45CEF08F05EEF7D
:1010B60008F066EF08F0000E366E000E376E000E72
:1010C600386E000E396E388E000E396E73EF08F0EA
:1010D600000E366E000E376E000E386E000E396E3C
:1010E60040503F5CD8B07AEF08F07CEF08F0A3EFF1
:1010F60008F03EAC81EF08F083EF08F085EF08F0CA
:10110600800E3E1A40C041F03FC040F041C03FF063
:1011160032C041F036C032F041C036F033C041F043
:1011260037C033F041C037F034C041F038C034F036
:1011360041C038F035C041F039C035F041C039F012
:10114600000E416E40503FC03AF03B6A3A5E000ED8
:101156003B5A3BBEB8EF08F03B5009E11A0E3A5C29
:10116600D8A0B8EF08F0BAEF08F0F1EF08F0325067
:10117600331034103510D8A4C3EF08F0C6EF08F0CA
:10118600010EC7EF08F0000E416E000E326E000E23
:10119600336E000E346E000E356E3FC040F0FAEF2F
:1011A60008F041A0D9EF08F0DBEF08F0E1EF08F016
:1011B600D89041300109416EE3EF08F0D8904132F2
:1011C60032A0E8EF08F0EAEF08F0EBEF08F0418E06
:1011D60035343532343233323232402A3F50405C75
:1011E600D8A0F8EF08F0FAEF08F0D4EF08F03EBC0C
:1011F600FFEF08F001EF09F041EF09F04050D8A4E5
:1012060007EF09F009EF09F013EF09F0000E326E4F
:10121600000E336E000E346E000E356E62EF0AF06D
:101226003650322637503322385034223950352240
:1012360035A020EF09F022EF09F0CEEF09F041A02A
:1012460027EF09F029EF09F02FEF09F0D890413088
:101256000109416E31EF09F0D890413232A036EFE4
:1012660009F038EF09F039EF09F0418E353435329F
:10127600343233323232402ACEEF09F03650325C05
:1012860037503358385034583550800A3A6E3950F2
:10129600800A3A58D8B052EF09F054EF09F07FEFC0
:1012A60009F03250365C3A6E335037583B6E345044
:1012B60038583C6E355039583D6EFF0E3A24326E22
:1012C600FF0E3B20336EFF0E3C20346EFF0E3D209A
:1012D600356E800E3E1A416C4150D8A475EF09F068
:1012E60077EF09F087EF09F0010E3226000E332260
:1012F6003422352287EF09F03650325E3750335AA2
:101306003850345A3950355A32503310341035105B
:10131600D8A490EF09F092EF09F0C7EF09F0415019
:10132600D8A498EF09F09AEF09F0C7EF09F0000E7C
:10133600326E000E336E000E346E000E356E62EFA6
:101346000AF0D890323633363436353641AEAEEF03
:1013560009F0B0EF09F0B1EF09F0328041A0B6EF25
:1013660009F0B8EF09F0BCEF09F0D8804136BEEFBE
:1013760009F0D89041364050D8B4C4EF09F0C6EF12
:1013860009F0C7EF09F0400634AECCEF09F0CEEF16
:1013960009F0A4EF09F0000E3F6E41AED5EF09F05B
:1013A600D7EF09F0EFEF09F041C03AF07F0E3A1699
:1013B600D8B4E0EF09F0E2EF09F0E6EF09F0010E2C
:1013C6003F6EEFEF09F032A0EBEF09F0EDEF09F019
:1013D600EFEF09F0E2EF09F03F50D8B4F5EF09F06E
:1013E600F7EF09F022EF0AF0010E3226000E332243
:1013F6003422352235A002EF0AF004EF0AF022EF7C
:101406000AF032C03AF033C03BF034C03CF035C08D
:101416003DF03D343D323C323B323A323AC032F056
:101426003BC033F03CC034F03DC035F04028D8B462
:101436001FEF0AF021EF0AF022EF0AF0402A4028B7
:10144600D8B428EF0AF02AEF0AF032EF0AF040503B
:10145600D8A430EF0AF032EF0AF044EF0AF0000E9B
:10146600326E000E336E000E346E000E356E405036
:10147600D8A440EF0AF042EF0AF044EF0AF0000E5B
:101486003E6E40A049EF0AF04BEF0AF04EEF0AF02D
:10149600348E4FEF0AF0349ED8904030356E3EAE13
:1014A60057EF0AF059EF0AF05AEF0AF0358E32C0BC
:1014B60032F033C033F034C034F035C035F01200AA
:1014C600000E0001EA6F000EEB6F000EEC6F000ECF
:1014D600ED6F5BEF0CF0AC98B896AC9442C0D9FFB8
:1014E60043C0DAFFDECF0BF0DECF0CF0DECF0DF01F
:1014F600DECF0EF0000E73EC0EF00BC01DF00CC02C
:101506001EF00DC01FF00EC020F0000E196E240E46
:101516001A6EF40E1B6E4A0E1C6EA6EC0CF019C069
:10152600E6F01AC0E7F01BC0E8F01CC0E9F0000EB8
:101536001D6E000E1E6E800E1F6E420E206EE6C0E1
:1015460019F0E7C01AF0E8C01BF0E9C01CF0A6ECE1
:101556000CF019C032F01AC033F01BC034F01CC0B6
:1015660035F0000E366E000E376E800E386EBF0EEA
:10157600396E03EC08F032C0EAF033C0EBF034C049
:10158600ECF035C0EDF086EF0CF0AC98B896AC8474
:1015960042C0D9FF43C0DAFFDECF44F0DECF45F0CC
:1015A600DECF46F0DECF47F0040ED89044364536FF
:1015B60046364736E82ED8EF0AF044C00BF045C051
:1015C6000CF046C00DF047C00EF0000E73EC0EF0A6
:1015D6000BC01DF00CC01EF00DC01FF00EC020F099
:1015E600000E196E240E1A6EF40E1B6E4A0E1C6E39
:1015F600A6EC0CF019C032F01AC033F01BC034F060
:101606001CC035F0000E366E000E376E800E386E3A
:10161600BF0E396E03EC08F032C0EAF033C0EBF0CF
:1016260034C0ECF035C0EDF086EF0CF0AC98B8861F
:10163600AC9442C0D9FF43C0DAFFDECF44F0DECF20
:1016460045F0DECF46F0DECF47F0040ED8904436A4
:10165600453646364736E82E29EF0BF044C00BF0E8
:1016660045C00CF046C00DF047C00EF0000E73ECFE
:101676000EF00BC01DF00CC01EF00DC01FF00EC00A
:1016860020F0000E196E240E1A6EF40E1B6E4A0E12
:101696001C6EA6EC0CF019C032F01AC033F01BC059
:1016A60034F01CC035F0000E366E000E376E800E1C
:1016B600386EBF0E396E03EC08F032C0EAF033C064
:1016C600EBF034C0ECF035C0EDF086EF0CF0AC98E2
:1016D600B886AC8442C0D9FF43C0DAFFDECF44F0FF
:1016E600DECF45F0DECF46F0DECF47F0020ED890D3
:1016F6004436453646364736E82E7AEF0BF044C078
:101706000BF045C00CF046C00DF047C00EF0000EC1
:1017160073EC0EF00BC01DF00CC01EF00DC01FF0D8
:101726000EC020F0000E196E240E1A6EF40E1B6EFB
:101736004A0E1C6EA6EC0CF019C032F01AC033F03B
:101746001BC034F01CC035F0000E366E000E376E2E
:10175600800E386EBF0E396E03EC08F032C0EAF028
:1017660033C0EBF034C0ECF035C0EDF086EF0CF092
:10177600AC88B89642C0D9FF43C0DAFFDECF44F04A
:10178600DECF45F0DECF46F0DECF47F0020ED89032
:101796004436453646364736E82ECAEF0BF044C087
:1017A6000BF045C00CF046C00DF047C00EF0000E21
:1017B60073EC0EF00BC01DF00CC01EF00DC01FF038
:1017C6000EC020F0000E196E240E1A6EF40E1B6E5B
:1017D6004A0E1C6EA6EC0CF019C032F01AC033F09B
:1017E6001BC034F01CC035F0000E366E000E376E8E
:1017F600800E386EBF0E396E03EC08F032C0EAF088
:1018060033C0EBF034C0ECF035C0EDF086EF0CF0F1
:10181600AC88B88642C0D9FF43C0DAFFDECF44F0B9
:10182600DECF45F0DECF46F0DECF47F0020ED89091
:101836004436453646364736E82E1AEF0CF044C095
:101846000BF045C00CF046C00DF047C00EF0000E80
:1018560073EC0EF00BC01DF00CC01EF00DC01FF097
:101866000EC020F0000E196E240E1A6EF40E1B6EBA
:101876004A0E1C6EA6EC0CF019C032F01AC033F0FA
:101886001BC034F01CC035F0000E366E000E376EED
:10189600800E386EBF0E396E03EC08F032C0EAF0E7
:1018A60033C0EBF034C0ECF035C0EDF086EF0CF051
:1018B60020EE04F04250D9264350DA22DF50446E1F
:1018C600456A4550000AD8B46BEF0CF086EF0CF071
:1018D6004450000AD8B46EEF0AF0010AD8B4C8EF33
:1018E6000AF0030AD8B419EF0BF0010AD8B46AEF6C
:1018F6000BF0070AD8B4BBEF0BF0010AD8B40BEF14
:101906000CF086EF0CF0EAC00BF0EBC00CF0ECC06C
:101916000DF0EDC00EF04DEC0FF00B50AF6EEAC0BF
:101926000BF0EBC00CF0ECC00DF0EDC00EF04DEC82
:101936000FF00CC00BF00DC00CF00EC00DF00E6ACF
:101946000B50B06E12001C50800B296E1C501C24CC
:10195600306E1BAEB1EF0CF0B3EF0CF0B4EF0CF041
:1019660030803050D8B4BAEF0CF0BCEF0CF0D1EFA9
:101976000CF03028D8A4C2EF0CF0C4EF0CF0CCEF7A
:101986000CF0000E196E000E1A6E000E1B6E000E85
:101996001C6E1B8E000E1C6ED9EF0CF0000E196E1D
:1019A600000E1A6E000E1B6E000E1C6E2050800B71
:1019B600291A20502024316E1FAEE4EF0CF0E6EF1A
:1019C6000CF0E7EF0CF031803150D8B4EDEF0CF0AD
:1019D600EFEF0CF004EF0DF03128D8A4F5EF0CF082
:1019E600F7EF0CF0FFEF0CF0000E1D6E000E1E6EF2
:1019F600000E1F6E000E206E1F8E000E206E0CEF66
:101A06000DF0000E1D6E000E1E6E000E1F6E000EF7
:101A1600206E1D501E101F102010D8A415EF0DF0BB
:101A260017EF0DF02FEF0DF0000E196E000E1A6E67
:101A3600000E1B6E000E1C6E800E1B127F0E1C12FB
:101A460029501C1219C019F01AC01AF01BC01BF03D
:101A56001CC01CF072EF0EF03050D8A435EF0DF01C
:101A660037EF0DF041EF0DF0000E196E000E1A6EF5
:101A7600000E1B6E000E1C6E72EF0EF0315030C061
:101A860021F0226A215E000E225A7F0E21242A6E40
:101A9600000E22202B6E19C025F01AC026F01BC09E
:101AA60027F01CC028F0000E196E000E1A6E000EEC
:101AB6001B6E000E1C6E000E2C6E000E2D6E000EA0
:101AC6002E6E000E2F6E000E316EA2EF0DF031500D
:101AD600D8B470EF0DF072EF0DF089EF0DF0D890DD
:101AE6002536263627362836D89019361A361B3626
:101AF6001C362FAE81EF0DF083EF0DF084EF0DF065
:101B06001980D8902C362D362E362F361D50255C52
:101B16001E5026581F50275820502858D8A096EFF8
:101B26000DF098EF0DF0A1EF0DF02F8C1D50255EF6
:101B36001E50265A1F50275A2050285A312A190E4D
:101B46003164A8EF0DF0AAEF0DF06AEF0DF0255005
:101B5600261027102810D8B4B3EF0DF0B5EF0DF00E
:101B6600CDEF0DF02C80CDEF0DF0D89019361A364A
:101B76001B361C362FAEC2EF0DF0C4EF0DF0C5EFCD
:101B86000DF01980D8902C362D362E362F362A0693
:101B9600D8A02B061BAED2EF0DF0D4EF0DF0B8EFA8
:101BA6000DF0000E316E2FAEDBEF0DF0DDEF0DF018
:101BB60001EF0EF0FF0E2C14216EFF0E2D14226E77
:101BC600FF0E2E14236E7F0E2F14246E215022102A
:101BD60023102410D8B4F2EF0DF0F4EF0DF0F8EF67
:101BE6000DF0010E316E01EF0EF019A0FDEF0DF0B4
:101BF600FFEF0DF001EF0EF0F4EF0DF03150D8B419
:101C060007EF0EF009EF0EF02DEF0EF0010E19267C
:101C1600000E1A221B221C221CA014EF0EF016EF37
:101C26000EF02DEF0EF019C021F01AC022F01BC0E5
:101C360023F01CC024F024342432233222322132F1
:101C460021C019F022C01AF023C01BF024C01CF0DA
:101C56002A4A2B2A2BBE38EF0EF02B5008E12A28F1
:101C6600D8A038EF0EF03AEF0EF045EF0EF0000E6A
:101C76002B6E2A68000E196E000E1A6E000E1B6E71
:101C8600000E1C6E2BBE52EF0EF02B5006E12A04FE
:101C9600D8B050EF0EF052EF0EF060EF0EF0000EDF
:101CA6002B6E000E2A6E000E196E000E1A6E000EB6
:101CB6001B6E000E1C6E000E296E2AC030F030A07E
:101CC60067EF0EF069EF0EF06CEF0EF01B8E6DEF06
:101CD6000EF01B9ED89030301C6E23EF0DF01200D4
:101CE600136E1350D8B47AEF0EF07CEF0EF09EEF21
:101CF6000EF00EBE83EF0EF081EF0EF09EEF0EF0AB
:101D06000BC00FF00CC010F00DC011F00EC012F099
:101D16000F1E101E111E121E0F2A000E1022112257
:101D260012220FC015F010C016F011C017F012C025
:101D360018F0A6EF0EF00BC015F00CC016F00DC093
:101D460017F00EC018F00B500C100D100E10D8A482
:101D5600AFEF0EF0B1EF0EF0BBEF0EF0000E0B6E14
:101D6600000E0C6E000E0D6E000E0E6E4CEF0FF098
:101D7600960E146EC5EF0EF0142AD890183217324C
:101D860016321532000E15140F6E000E1614106E54
:101D9600000E1714116EFE0E1814126E0F5010104E
:101DA60011101210D8A4DAEF0EF0DCEF0EF0BFEF30
:101DB6000EF0EAEF0EF0142A010E1526000E16227A
:101DC60017221822D8901832173216321532000E02
:101DD60015140F6E000E1614106E000E1714116EE9
:101DE600FF0E1814126E0F50101011101210D8A4F6
:101DF600FFEF0EF001EF0FF0DEEF0EF009EF0FF040
:101E06001406D890153616361736183617BE0EEF46
:101E16000FF010EF0FF018EF0FF0020E146016EF30
:101E26000FF018EF0FF003EF0FF014B01DEF0FF0E7
:101E36001FEF0FF020EF0FF0179ED890143214C04A
:101E46000FF0106A116A126A0FC012F0116A106A56
:101E56000F6A0F5015121050161211501712125009
:101E660018121350D8B43AEF0FF03CEF0FF044EFCE
:101E76000FF00EBE43EF0FF041EF0FF044EF0FF0FF
:101E8600188E15C00BF016C00CF017C00DF018C058
:101E96000EF012000D340E34146E1450D8A456EF02
:101EA6000FF058EF0FF062EF0FF0000E0B6E000E02
:101EB6000C6E000E0D6E000E0E6ECFEF0FF00BC007
:101EC6000FF00CC010F00DC011F00EC012F0200E75
:101ED60072EF0FF0D8901232113210320F32E82E14
:101EE6006DEF0FF00F50136E0D8EFF0E0B16FF0EDB
:101EF6000C16FF0E0D16000E0E16960E145E14BE70
:101F060089EF0FF087EF0FF09FEF0FF01450800A64
:101F1600970FD8B091EF0FF093EF0FF095EF0FF00A
:101F260058EF0FF0D8900E320D320C320B32143EB1
:101F360095EF0FF0B7EF0FF01F0E1464A5EF0FF03B
:101F4600A7EF0FF0AFEF0FF058EF0FF0D8900B366A
:101F56000C360D360E3614061450D8A4B5EF0FF015
:101F6600B7EF0FF0A9EF0FF01350D8B4BDEF0FF095
:101F7600BFEF0FF0C7EF0FF00E1E0D1E0C1E0B6C01
:101F8600000E0C220D220E220BC00BF00CC00CF022
:101F96000DC00DF00EC00EF012009EEC13F0540EA4
:101FA600146E000E156EA30E166E000E176EE6EC7E
:101FB60011F00001A305D8A4E3EF0FF0E5EF0FF051
:101FC60001EF10F0A151D8A4EBEF0FF0EDEF0FF0F9
:101FD60001EF10F0310EB0EC12F0010E0001A16F0E
:101FE600030E0001EF6F080EEE6F770EE82EFED798
:101FF600EE2FFCD7EF2FFAD710EF10F0000EA16FDF
:10200600020E0001EF6F040EEE6FBA0EE82EFED739
:10201600EE2FFCD7EF2FFAD700F0E50E146E000E68
:10202600156EA20E166E000E176EE6EC11F000018C
:10203600A205D8A421EF10F023EF10F03FEF10F027
:10204600A051D8A429EF10F02BEF10F03FEF10F0BD
:10205600320EB0EC12F0010E0001A06F030E00016B
:10206600EF6F080EEE6F770EE82EFED7EE2FFCD739
:10207600EF2FFAD7D2EF0FF0000EA06F020E00017D
:10208600EF6F040EEE6FBA0EE82EFED7EE2FFCD7DA
:10209600EF2FFAD700F0D2EF0FF029EF01F0FACFC9
:1020A60004F0FBCF05F0D9CF06F0DACF07F0F2A89F
:1020B6005FEF10F061EF10F06AEF10F0F2A266EF3A
:1020C60010F068EF10F06AEF10F009EC14F0F2AAC5
:1020D6006FEF10F071EF10F07AEF10F0F2A476EFD8
:1020E60010F078EF10F07AEF10F0C5EC13F09DA029
:1020F6007FEF10F081EF10F08AEF10F09EA086EFD0
:1021060010F088EF10F08AEF10F0D8EC13F09DA2D3
:102116008FEF10F091EF10F09AEF10F09EA296EF6D
:1021260010F098EF10F09AEF10F0E1EC13F0A0A287
:102136009FEF10F0A1EF10F0AAEF10F0A1A2A6EF0A
:1021460010F0A8EF10F0AAEF10F0CFEC13F09DA856
:10215600AFEF10F0B1EF10F0BAEF10F09EA8B6EFA7
:1021660010F0B8EF10F0BAEF10F054EC12F09DAA90
:10217600BFEF10F0C1EF10F0CAEF10F09EAAC6EF45
:1021860010F0C8EF10F0CAEF10F09FEC11F007C086
:10219600DAFF06C0D9FF05C0FBFF04C0FAFF55925F
:1021A6001100030E83EC12F0010E83EC12F00FEC1B
:1021B60014F00DEC14F048C00BF049C00CF0B3EC71
:1021C60013F048C014F049C015F06EEC13F048C087
:1021D60014F049C015F054EC13F048C042F049C061
:1021E60043F063EC0AF020EE07F04850D926495038
:1021F600DA22DECF80F0DDCF81F020EE09F0485004
:10220600D9264950DA22DECF7EF0DDCF7FF020EEF0
:102216000BF04850D9264950DA22DECF7CF0DDCFCC
:102226007DF020EE0DF04850D9264950DA22DECF57
:102236007AF0DDCF7BF020EE0FF04850D9264950DA
:10224600DA22DECF78F0DDCF79F0000E00019F6F45
:10225600000E4E6E000E4D6E080E4C6E000E4B6E4E
:10226600000E4A6E020E83EC12F09D889D8A1200C3
:10227600136E070E0B6442EF11F044EF11F089EF75
:1022860011F09EEF11F00BC00DF0010E0E6E0D2A2F
:102296004FEF11F0D8900E360D2E4DEF11F00E5077
:1022A600FF0A0F6E1350020DC80EF324D96E000EEE
:1022B600F420DA6EDECF10F0DDCF11F010C0D9FFBA
:1022C60011C0DAFF0F50DF169EEF11F00BC00DF0B4
:1022D600010E0E6E0D2A72EF11F0D8900E360D2EED
:1022E60070EF11F01350020DC80EF324D96E000ED4
:1022F600F420DA6EDECF0FF0DDCF10F00FC0D9FF7D
:1023060010C0DAFF0E50DF1267EF11F00C500D6EA1
:102316000E6A0E50000AD8B493EF11F09EEF11F03A
:102326000D50000AD8B446EF11F0010AD8B469EF8F
:1023360011F09EEF11F012009E9A600E4B24D96E9A
:10234600DA6A000EDA22000EDF6EABA4ADEF11F0F2
:10235600AFEF11F0B7EF11F0600E4B24D96EDA6AC9
:10236600000EDA220001DF80ABA2BCEF11F0BEEF57
:1023760011F0C6EF11F0600E4B24D96EDA6A000E2A
:10238600DA220001DF82600E4B24D96EDA6A000E73
:10239600DA22DF50D8B4D2EF11F0D4EF11F0D6EF35
:1023A60011F0D8EF11F088EC13F002D8E5EF11F038
:1023B6000500FA6E00017E51FD6E7F51FE6EFF6ACA
:1023C600FA501200120014C0D9FF15C0DAFFDF5010
:1023D6000F0B186E050E1860F3EF11F0F5EF11F004
:1023E60024EF12F014501510D8A4FCEF11F0FEEFF4
:1023F60011F000EF12F024EF12F014C0D9FF15C04F
:10240600DAFFDF38070B0B6E16C00CF017C00DF0A5
:1024160014C0D9FF15C0DAFFDF500F0B25EC12F000
:1024260016C0D9FF17C0DAFFDF50186E14C0D9FFE7
:1024360015C0DAFF18321832DF5018187F0B18183B
:10244600DF6E1200136E070E0B642CEF12F02EEFE8
:1024560012F030EF12F053EF12F00BC00EF01350E3
:10246600020DB40EF324D96E000EF420DA6EDECF20
:102476000FF0DDCF10F00FC0D9FF10C0DAFFDF502C
:10248600116E0E2A49EF12F0D89011320E2E47EF38
:1024960012F01150010B0CC0D9FF0DC0DAFFDF6E30
:1024A600120011EC14F0080E4C605CEF12F05EEFB7
:1024B60012F074EF12F0700E4D24D96EDA6A000E27
:1024C600DA22DF50AD6E4D2A070E4D646DEF12F025
:1024D6006FEF12F071EF12F0000E4D6E4C2A75EF91
:1024E60012F09D9802D882EF12F00500FA6E0001F4
:1024F6008051FD6E8151FE6EFF6AFA501200120085
:102506000D6E92EF12F09D88AFEF12F09D98AFEF2F
:1025160012F09D8AAFEF12F09D9AAFEF12F00D50B8
:102526000B6E0C6A0C50000AD8B49CEF12F0AFEF99
:1025360012F00B50000AD8B486EF12F0010AD8B494
:1025460089EF12F0030AD8B48CEF12F0010AD8B45E
:102556008FEF12F0AFEF12F012000B6E0FEC14F0CB
:102566009D889DB8B9EF12F0BBEF12F0BFEF12F0E5
:102576000BC0ADFFDCEF12F04C50D8B4C5EF12F033
:10258600C7EF12F0BFEF12F0700E4E24D96EDA6A62
:10259600000EDA220BC0DFFF4E2A070E4E64D6EF7E
:1025A60012F0D8EF12F0DAEF12F0000E4E6E4C0673
:1025B6009D88120014C0D9FF15C0DAFFDF500F0B3B
:1025C600166E050E1660EAEF12F0ECEF12F008EF49
:1025D60013F014501510D8A4F3EF12F0F5EF12F023
:1025E600F7EF12F008EF13F014C0D9FF15C0DAFFA9
:1025F600DF38070B0B6E010E0C6E14C0D9FF15C029
:10260600DAFFDF500F0B3BEC11F01200660EF66E90
:10261600260EF76E000EF86E00EEA4F010EE42F0F5
:102626000900F5CFEEFFE550E150FAE1400EF66EF7
:10263600280EF76E000EF86E0900F5CF54F000EE86
:1026460060F0440EEE6AE806FDE100EE4AF00A0E7E
:10265600EE6AE806FDE1559055920001D0EF0FF0C5
:102666003738392F3435362A3132332D63303D2B06
:10267600800F810F820F830F840F890F8A0F8B0FB4
:102686008C0F8D0F920F930F940F950F960F32317B
:10269600802500000000033C283E280000000000C2
:1026A600001220EE06F01450D9261550DA22DFA0CB
:1026B6005FEF13F061EF13F06CEF13F0060E0B6E85
:1026C600010E0C6E020E3BEC11F0AB8EAC8A6DEF78
:1026D60013F0AC9A120020EE06F01450D9261550CD
:1026E600DA22DFA279EF13F07BEF13F086EF13F017
:1026F600070E0B6E010E0C6E020E3BEC11F0AB8E4C
:10270600AB8887EF13F0AB981200680E4B24D96E96
:10271600DA6A000EDA22AECFDFFF4B2A070E4B64D1
:1027260097EF13F099EF13F09BEF13F0000E4B6E3B
:1027360000019E2B1200F28EF28CD40E486E000E13
:10274600496ED4EC10F0540E146E000E156EDDECCE
:1027560012F0E50E146E000E156EDDEC12F012008E
:1027660020EE06F00B50D9260C50DA22DFA8BEEF79
:1027760013F0C0EF13F0C3EF13F0AC88C4EF13F0FF
:10278600AC981200F2948CC001F08DC002F0E8EC17
:1027960013F01CEC14F01200A19200018351B36EE9
:1027A60082C0B2FF19EC14F012009E90000189510C
:1027B600CF6E88C0CEFF1BEC14F012009E924F50D5
:1027C60005EC14F01AEC14F012000250D76E01C09A
:1027D600D6FF1200F29013EC14F01200F29014ECF3
:1027E60014F01200F29015EC14F01200F29016ECB0
:1027F60014F01200F09217EC14F01200F09018EC9E
:1028060014F01200026E02C0CBFF1200F2921DEC11
:1028160014F012009E9A12009E9812009E981200C2
:102826001200120012001200120012001200120012
:0B28360012001200120012001200023B
:020000040020DA
:08000000FFFFFFFFFFFFFFFF00
:020000040030CA
:0E000000FF071F1FFF8B85FF0FC00FE00F4093
:00000001FF
