:020000040000FA
:0400000029EF01F0F3
:06000800478257EF0FF0E4
:100018004780D8CF16F0E8CF17F0E0CF18F0F0A659
:1000280018EF00F01AEF00F023EF00F0F0A01FEF38
:1000380000F021EF00F023EF00F02DEC15F0F0A810
:1000480028EF00F02AEF00F033EF00F0F0A22FEFD6
:1000580000F031EF00F033EF00F029EC15F0F2A6D4
:1000680038EF00F03AEF00F04EEF00F0F2A03FEF6B
:1000780000F041EF00F04EEF00F081A846EF00F0ED
:1000880048EF00F04EEF00F0010E406E25EC15F041
:100098006FEF00F0F2A653EF00F055EF00F06FEFAE
:1000A80000F0F2A05AEF00F05CEF00F06FEF00F004
:1000B80081B861EF00F063EF00F06FEF00F04004EB
:1000C800D8A469EF00F06BEF00F06FEF00F0000EBE
:1000D800406E4AEF00F0F2A674EF00F076EF00F001
:1000E8008AEF00F0F2A07BEF00F07DEF00F08AEFDE
:1000F80000F081AA82EF00F084EF00F08AEF00F0B0
:10010800010E3F6E21EC15F0ABEF00F0F2A68FEF79
:1001180000F091EF00F0ABEF00F0F2A096EF00F0E6
:1001280098EF00F0ABEF00F081BA9DEF00F09FEF81
:1001380000F0ABEF00F03F04D8A4A5EF00F0A7EF64
:1001480000F0ABEF00F0000E3F6E86EF00F0F2A675
:10015800B0EF00F0B2EF00F0C6EF00F0F2A0B7EF9A
:1001680000F0B9EF00F0C6EF00F081ACBEEF00F090
:10017800C0EF00F0C6EF00F0010E3E6E1DEC15F06A
:10018800E7EF00F0F2A6CBEF00F0CDEF00F0E7EFDD
:1001980000F0F2A0D2EF00F0D4EF00F0E7EF00F0AB
:1001A80081BCD9EF00F0DBEF00F0E7EF00F03E0490
:1001B800D8A4E1EF00F0E3EF00F0E7EF00F0000E65
:1001C8003E6EC2EF00F0F2A6ECEF00F0EEEF00F0AA
:1001D80002EF01F0F2A0F3EF00F0F5EF00F002EF0C
:1001E80001F081AEFAEF00F0FCEF00F002EF01F051
:1001F800010E3D6E19EC15F021EF01F0F2A607EFA4
:1002080001F009EF01F021EF01F0F2A00EEF01F08B
:1002180010EF01F021EF01F081BE15EF01F017EFAB
:1002280001F021EF01F03D04D8A41DEF01F01FEF0C
:1002380001F021EF01F0FCEF00F018C0E0FF17C05B
:0E024800E8FF16C0D8FF479010004BEF13F0F0
:0510000000256900005D
:101006000001F051800BF96FF051F025FB6FEFAF47
:101016000FEF08F011EF08F012EF08F0FB81FB511B
:10102600D8B418EF08F01AEF08F02FEF08F0FB29F4
:10103600D8A420EF08F022EF08F02AEF08F0000EFF
:10104600ED6F000EEE6F000EEF6F000EF06FEF8F7C
:10105600000EF06F37EF08F0000EED6F000EEE6F2A
:10106600000EEF6F000EF06FF451800BFA6FF9511E
:10107600FA19D8B441EF08F043EF08F044EF08F04E
:10108600F98DF451F425FA6FF3AF4CEF08F04EEFFB
:1010960008F04FEF08F0FA81FA51D8B455EF08F08E
:1010A60057EF08F06CEF08F0FA29D8A45DEF08F0C6
:1010B6005FEF08F067EF08F0000EF16F000EF26FB9
:1010C600000EF36F000EF46FF38F000EF46F74EFE3
:1010D60008F0000EF16F000EF26F000EF36F000EB7
:1010E600F46FFB51FA5DD8B07BEF08F07DEF08F0A6
:1010F600A4EF08F0F9AD82EF08F084EF08F086EF70
:1011060008F0800EF91BFBC0FCF0FAC0FBF0FCC037
:10111600FAF0EDC0FCF0F1C0EDF0FCC0F1F0EEC06D
:10112600FCF0F2C0EEF0FCC0F2F0EFC0FCF0F3C051
:10113600EFF0FCC0F3F0F0C0FCF0F4C0F0F0FCC03F
:10114600F4F0000EFC6FFB51FAC0F5F0F66BF55F9C
:10115600000EF65BF6BFB9EF08F0F65109E11A0E7C
:10116600F55DD8A0B9EF08F0BBEF08F0F2EF08F094
:10117600ED51EE11EF11F011D8A4C4EF08F0C7EF4E
:1011860008F0010EC8EF08F0000EFC6F000EED6FC0
:10119600000EEE6F000EEF6F000EF06FFAC0FBF060
:1011A600FBEF08F0FCA1DAEF08F0DCEF08F0E2EF65
:1011B60008F0D890FC310109FC6FE4EF08F0D890F4
:1011C600FC33EDA1E9EF08F0EBEF08F0ECEF08F0E7
:1011D600FC8FF035F033EF33EE33ED33FB2BFA5162
:1011E600FB5DD8A0F9EF08F0FBEF08F0D5EF08F0AB
:1011F600F9BD00EF09F002EF09F042EF09F0FB51EB
:10120600D8A408EF09F00AEF09F014EF09F0000E70
:10121600ED6F000EEE6F000EEF6F000EF06F63EFD6
:101226000AF0F151ED27F251EE23F351EF23F45179
:10123600F023F0A121EF09F023EF09F0CFEF09F039
:10124600FCA128EF09F02AEF09F030EF09F0D89059
:10125600FC310109FC6F32EF09F0D890FC33EDA1A7
:1012660037EF09F039EF09F03AEF09F0FC8FF03566
:10127600F033EF33EE33ED33FB2BCFEF09F0F151C3
:10128600ED5DF251EE59F351EF59F051800AF56FC9
:10129600F451800AF559D8B053EF09F055EF09F02B
:1012A60080EF09F0ED51F15DF56FEE51F259F66FF1
:1012B600EF51F359F76FF051F459F86FFF0EF5251A
:1012C600ED6FFF0EF621EE6FFF0EF721EF6FFF0EAB
:1012D600F821F06F800EF91BFC6DFC51D8A476EF57
:1012E60009F078EF09F088EF09F0010EED27000EFE
:1012F600EE23EF23F02388EF09F0F151ED5FF25171
:10130600EE5BF351EF5BF451F05BED51EE11EF1133
:10131600F011D8A491EF09F093EF09F0C8EF09F0A6
:10132600FC51D8A499EF09F09BEF09F0C8EF09F03A
:10133600000EED6F000EEE6F000EEF6F000EF06FF9
:1013460063EF0AF0D890ED37EE37EF37F037FCAFA2
:10135600AFEF09F0B1EF09F0B2EF09F0ED81FCA1B2
:10136600B7EF09F0B9EF09F0BDEF09F0D880FC3707
:10137600BFEF09F0D890FC37FB51D8B4C5EF09F0A0
:10138600C7EF09F0C8EF09F0FB07EFAFCDEF09F0A3
:10139600CFEF09F0A5EF09F0000EFA6FFCAFD6EF1C
:1013A60009F0D8EF09F0F0EF09F0FCC0F5F07F0E78
:1013B600F517D8B4E1EF09F0E3EF09F0E7EF09F02C
:1013C600010EFA6FF0EF09F0EDA1ECEF09F0EEEF88
:1013D60009F0F0EF09F0E3EF09F0FA51D8B4F6EFAF
:1013E60009F0F8EF09F023EF0AF0010EED27000EE1
:1013F600EE23EF23F023F0A103EF0AF005EF0AF046
:1014060023EF0AF0EDC0F5F0EEC0F6F0EFC0F7F00E
:10141600F0C0F8F0F835F833F733F633F533F5C0A6
:10142600EDF0F6C0EEF0F7C0EFF0F8C0F0F0FB29F3
:10143600D8B420EF0AF022EF0AF023EF0AF0FB2BD4
:10144600FB29D8B429EF0AF02BEF0AF033EF0AF0A4
:10145600FB51D8A431EF0AF033EF0AF045EF0AF05A
:10146600000EED6F000EEE6F000EEF6F000EF06FC8
:10147600FB51D8A441EF0AF043EF0AF045EF0AF01A
:10148600000EF96FFBA14AEF0AF04CEF0AF04FEF9E
:101496000AF0EF8F50EF0AF0EF9FD890FB31F06F14
:1014A600F9AF58EF0AF05AEF0AF05BEF0AF0F08F47
:1014B600EDC0EDF0EEC0EEF0EFC0EFF0F0C0F0F0F2
:1014C6001200000E0101086F000E096F000E0A6F70
:1014D600000E0B6F62EF0CF0AC98B896AC94FDC0A2
:1014E600D9FFFEC0DAFFDECF19F0DECF1AF0DECF6D
:1014F6001BF0DECF1CF0000E7DEC0EF019C02BF0B9
:101506001AC02CF01BC02DF01CC02EF0000E276E4A
:10151600240E286EF40E296E4A0E2A6EAFEC0CF0DD
:1015260027C004F128C005F129C006F12AC007F139
:10153600000E2B6E000E2C6E800E2D6E420E2E6E41
:1015460004C127F005C128F006C129F007C12AF019
:10155600AFEC0CF027C0EDF028C0EEF029C0EFF09C
:101566002AC0F0F0000E0001F16F000EF26F800E3F
:10157600F36FBF0EF46F03EC08F0EDC008F1EEC098
:1015860009F1EFC00AF1F0C00BF18FEF0CF0AC9847
:10159600B896AC84FDC0D9FFFEC0DAFFDECF00F1FD
:1015A600DECF01F1DECF02F1DECF03F1040ED890DB
:1015B6000037013702370337E82EDAEF0AF000C1A9
:1015C60019F001C11AF002C11BF003C11CF0000E94
:1015D6007DEC0EF019C02BF01AC02CF01BC02DF0BC
:1015E6001CC02EF0000E276E240E286EF40E296EF7
:1015F6004A0E2A6EAFEC0CF027C0EDF028C0EEF0D4
:1016060029C0EFF02AC0F0F0000E0001F16F000EC5
:10161600F26F800EF36FBF0EF46F03EC08F0EDC0AF
:1016260008F1EEC009F1EFC00AF1F0C00BF18FEF3F
:101636000CF0AC98B886AC94FDC0D9FFFEC0DAFFBA
:10164600DECF00F1DECF01F1DECF02F1DECF03F116
:10165600040ED8900037013702370337E82E2CEFF7
:101666000BF000C119F001C11AF002C11BF003C151
:101676001CF0000E7DEC0EF019C02BF01AC02CF0F9
:101686001BC02DF01CC02EF0000E276E240E286EF7
:10169600F40E296E4A0E2A6EAFEC0CF027C0EDF060
:1016A60028C0EEF029C0EFF02AC0F0F0000E0001CD
:1016B600F16F000EF26F800EF36FBF0EF46F03EC46
:1016C60008F0EDC008F1EEC009F1EFC00AF1F0C074
:1016D6000BF18FEF0CF0AC98B886AC84FDC0D9FF47
:1016E600FEC0DAFFDECF00F1DECF01F1DECF02F180
:1016F600DECF03F1020ED8900037013702370337E9
:10170600E82E7EEF0BF000C119F001C11AF002C1FC
:101716001BF003C11CF0000E7DEC0EF019C02BF07F
:101726001AC02CF01BC02DF01CC02EF0000E276E28
:10173600240E286EF40E296E4A0E2A6EAFEC0CF0BB
:1017460027C0EDF028C0EEF029C0EFF02AC0F0F077
:10175600000E0001F16F000EF26F800EF36FBF0EE8
:10176600F46F03EC08F0EDC008F1EEC009F1EFC02C
:101776000AF1F0C00BF18FEF0CF0AC88B896FDC003
:10178600D9FFFEC0DAFFDECF00F1DECF01F1DECFFA
:1017960002F1DECF03F1020ED8900037013702378F
:1017A6000337E82ECFEF0BF000C119F001C11AF094
:1017B60002C11BF003C11CF0000E7DEC0EF019C037
:1017C6002BF01AC02CF01BC02DF01CC02EF0000E02
:1017D600276E240E286EF40E296E4A0E2A6EAFEC82
:1017E6000CF027C0EDF028C0EEF029C0EFF02AC0BB
:1017F600F0F0000E0001F16F000EF26F800EF36F35
:10180600BF0EF46F03EC08F0EDC008F1EEC009F16D
:10181600EFC00AF1F0C00BF18FEF0CF0AC88B88680
:10182600FDC0D9FFFEC0DAFFDECF00F1DECF01F149
:10183600DECF02F1DECF03F1020ED890003701377A
:1018460002370337E82E20EF0CF000C119F001C172
:101856001AF002C11BF003C11CF0000E7DEC0EF065
:1018660019C02BF01AC02CF01BC02DF01CC02EF096
:10187600000E276E240E286EF40E296E4A0E2A6E6E
:10188600AFEC0CF027C0EDF028C0EEF029C0EFF069
:101896002AC0F0F0000E0001F16F000EF26F800E0C
:1018A600F36FBF0EF46F03EC08F0EDC008F1EEC065
:1018B60009F1EFC00AF1F0C00BF18FEF0CF0000157
:1018C60020EE04F0FD51D926FE51DA22DF50010147
:1018D600006F016B0151000AD8B474EF0CF08FEF62
:1018E6000CF00051000AD8B46FEF0AF0010AD8B420
:1018F600CAEF0AF0030AD8B41CEF0BF0010AD8B4F9
:101906006EEF0BF0070AD8B4C0EF0BF0010AD8B49B
:1019160011EF0CF08FEF0CF008C119F009C11AF0A5
:101926000AC11BF00BC11CF0E1EC0FF01950AF6EB1
:1019360008C119F009C11AF00AC11BF00BC11CF04D
:10194600E1EC0FF01AC019F01BC01AF01CC01BF016
:101956001C6A1950B06E12002A50800B0001E46F09
:101966002A502A24EB6F29AEBBEF0CF0BDEF0CF02A
:10197600BEEF0CF0EB81EB51D8B4C4EF0CF0C6EF20
:101986000CF0DBEF0CF0EB29D8A4CCEF0CF0CEEF8B
:101996000CF0D6EF0CF0000E276E000E286E000E2F
:1019A600296E000E2A6E298E000E2A6EE3EF0CF0C9
:1019B600000E276E000E286E000E296E000E2A6E8F
:1019C6002E50800BE41B2E502E24EC6F2DAEEEEF26
:1019D6000CF0F0EF0CF0F1EF0CF0EC81EC51D8B418
:1019E600F7EF0CF0F9EF0CF00EEF0DF0EC29D8A4A0
:1019F600FFEF0CF001EF0DF009EF0DF0000E2B6E6E
:101A0600000E2C6E000E2D6E000E2E6E2D8E000E0C
:101A16002E6E16EF0DF0000E2B6E000E2C6E000EC5
:101A26002D6E000E2E6E2B502C102D102E10D8A4BD
:101A36001FEF0DF021EF0DF039EF0DF0000E276EC0
:101A4600000E286E000E296E000E2A6E800E2912D8
:101A56007F0E2A12E4512A1227C027F028C028F048
:101A660029C029F02AC02AF07CEF0EF0EB51D8A449
:101A76003FEF0DF041EF0DF04BEF0DF0000E276E2E
:101A8600000E286E000E296E000E2A6E7CEF0EF0F8
:101A9600EC51EBC0DCF0DD6BDC5F000EDD5B7F0E36
:101AA600DC25E56F000EDD21E66F27C0E0F028C0DB
:101AB600E1F029C0E2F02AC0E3F0000E276E000E26
:101AC600286E000E296E000E2A6E000EE76F000EBD
:101AD600E86F000EE96F000EEA6F000EEC6FACEFD8
:101AE6000DF0EC51D8B47AEF0DF07CEF0DF093EFDA
:101AF6000DF0D890E037E137E237E337D890273654
:101B0600283629362A36EAAF8BEF0DF08DEF0DF029
:101B16008EEF0DF02780D890E737E837E937EA37B8
:101B26002B50E05D2C50E1592D50E2592E50E359CF
:101B3600D8A0A0EF0DF0A2EF0DF0ABEF0DF0EA8DFF
:101B46002B50E05F2C50E15B2D50E25B2E50E35BA7
:101B5600EC2B190EEC65B2EF0DF0B4EF0DF074EF4F
:101B66000DF0E051E111E211E311D8B4BDEF0DF033
:101B7600BFEF0DF0D7EF0DF0E781D7EF0DF0D8905E
:101B86002736283629362A36EAAFCCEF0DF0CEEFC7
:101B96000DF0CFEF0DF02780D890E737E837E9371B
:101BA600EA37E507D8A0E60729AEDCEF0DF0DEEF51
:101BB6000DF0C2EF0DF0000EEC6FEAAFE5EF0DF0A1
:101BC600E7EF0DF00BEF0EF0FF0EE715DC6FFF0EE3
:101BD600E815DD6FFF0EE915DE6F7F0EEA15DF6F84
:101BE600DC51DD11DE11DF11D8B4FCEF0DF0FEEF94
:101BF6000DF002EF0EF0010EEC6F0BEF0EF027A0CA
:101C060007EF0EF009EF0EF00BEF0EF0FEEF0DF002
:101C1600EC51D8B411EF0EF013EF0EF037EF0EF0D3
:101C2600010E2726000E282229222A222AA01EEF8C
:101C36000EF020EF0EF037EF0EF027C0DCF028C0D4
:101C4600DDF029C0DEF02AC0DFF0DF35DF33DE331A
:101C5600DD33DC33DCC027F0DDC028F0DEC029F040
:101C6600DFC02AF0E54BE62BE6BF42EF0EF0E65169
:101C760008E1E529D8A042EF0EF044EF0EF04FEF51
:101C86000EF0000EE66FE569000E276E000E286E58
:101C9600000E296E000E2A6EE6BF5CEF0EF0E651CE
:101CA60006E1E505D8B05AEF0EF05CEF0EF06AEFEC
:101CB6000EF0000EE66F000EE56F000E276E000EAA
:101CC600286E000E296E000E2A6E000EE46FE5C027
:101CD600EBF0EBA171EF0EF073EF0EF076EF0EF076
:101CE600298E77EF0EF0299ED890EB312A6E2DEFD4
:101CF6000DF01200216E2150D8B484EF0EF086EF5D
:101D06000EF0A8EF0EF01CBE8DEF0EF08BEF0EF06E
:101D1600A8EF0EF019C01DF01AC01EF01BC01FF070
:101D26001CC020F01D1E1E1E1F1E201E1D2A000E7A
:101D36001E221F2220221DC023F01EC024F01FC019
:101D460025F020C026F0B0EF0EF019C023F01AC01F
:101D560024F01BC025F01CC026F019501A101B10C9
:101D66001C10D8A4B9EF0EF0BBEF0EF0C5EF0EF0C5
:101D7600000E196E000E1A6E000E1B6E000E1C6E03
:101D860056EF0FF0960E226ECFEF0EF0222AD89065
:101D96002632253224322332000E23141D6E000E05
:101DA60024141E6E000E25141F6EFE0E2614206EC1
:101DB6001D501E101F102010D8A4E4EF0EF0E6EF01
:101DC6000EF0C9EF0EF0F4EF0EF0222A010E2326D4
:101DD600000E242225222622D890263225322432AD
:101DE6002332000E23141D6E000E24141E6E000EE8
:101DF60025141F6EFF0E2614206E1D501E101F1078
:101E06002010D8A409EF0FF00BEF0FF0E8EF0EF05B
:101E160013EF0FF02206D8902336243625362636C1
:101E260025BE18EF0FF01AEF0FF022EF0FF0020E9B
:101E3600226020EF0FF022EF0FF00DEF0FF022B02F
:101E460027EF0FF029EF0FF02AEF0FF0259ED8901D
:101E5600223222C01DF01E6A1F6A206A1DC020F0B1
:101E66001F6A1E6A1D6A1D5023121E5024121F501F
:101E76002512205026122150D8B444EF0FF046EF19
:101E86000FF04EEF0FF01CBE4DEF0FF04BEF0FF0C3
:101E96004EEF0FF0268E23C019F024C01AF025C08D
:101EA6001BF026C01CF01200FACF10F0FBCF11F089
:101EB600D9CF12F0DACF13F0F3CF14F0F4CF15F038
:101EC600F2A868EF0FF06AEF0FF073EF0FF0F2A2CF
:101ED6006FEF0FF071EF0FF073EF0FF035EC15F0B9
:101EE600F2AA78EF0FF07AEF0FF083EF0FF0F2A47B
:101EF6007FEF0FF081EF0FF083EF0FF0EDEC14F0B2
:101F06009DA088EF0FF08AEF0FF093EF0FF09EA0E1
:101F16008FEF0FF091EF0FF093EF0FF0FFEC14F04F
:101F26009DA298EF0FF09AEF0FF0A3EF0FF09EA28D
:101F36009FEF0FF0A1EF0FF0A3EF0FF007EC15F0F6
:101F4600A0A2A8EF0FF0AAEF0FF0B3EF0FF0A1A237
:101F5600AFEF0FF0B1EF0FF0B3EF0FF0F7EC14F0B7
:101F66009DA8B8EF0FF0BAEF0FF0C3EF0FF09EA8E1
:101F7600BFEF0FF0C1EF0FF0C3EF0FF07CEC13F0E3
:101F86009DAAC8EF0FF0CAEF0FF0D3EF0FF09EAA8D
:101F9600CFEF0FF0D1EF0FF0D3EF0FF048EC12F0C8
:101FA60015C0F4FF14C0F3FF13C0DAFF12C0D9FF47
:101FB60011C0FBFF10C0FAFF479211001B341C34FE
:101FC600226E2250D8A4EAEF0FF0ECEF0FF0F6EFF6
:101FD6000FF0000E196E000E1A6E000E1B6E000E2C
:101FE6001C6E63EF10F019C01DF01AC01EF01BC066
:101FF6001FF01CC020F0200E06EF10F0D890203203
:102006001F321E321D32E82E01EF10F01D50216ED8
:102016001B8EFF0E1916FF0E1A16FF0E1B16000E4C
:102026001C16960E225E22BE1DEF10F01BEF10F05E
:1020360033EF10F02250800A970FD8B025EF10F03A
:1020460027EF10F029EF10F0ECEF0FF0D8901C32CC
:102056001B321A321932223E29EF10F04BEF10F0E4
:102066001F0E226439EF10F03BEF10F043EF10F033
:10207600ECEF0FF0D89019361A361B361C362206AE
:102086002250D8A449EF10F04BEF10F03DEF10F0BE
:102096002150D8B451EF10F053EF10F05BEF10F071
:1020A6001C1E1B1E1A1E196C000E1A221B221C2235
:1020B60019C019F01AC01AF01BC01BF01CC01CF086
:1020C6001200030EABEC13F0010EABEC13F03CEC7C
:1020D60015F03EEC15F00CC119F00DC11AF0DBEC51
:1020E60014F00CC122F00DC123F0ACEC14F00CC1BD
:1020F60022F00DC123F092EC14F00CC1FDF00DC1DD
:10210600FEF064EC0AF0010120EE07F00C51D9262E
:102116000D51DA22DECFC1F0DDCFC2F020EE09F09C
:102126000C51D9260D51DA22DECFBFF0DDCFC0F03B
:1021360020EE0BF00C51D9260D51DA22DECFBDF080
:10214600DDCFBEF020EE0DF00C51D9260D51DA226E
:10215600DECFBBF0DDCFBCF020EE0FF00C51D92660
:102166000D51DA22DECFB9F0DDCFBAF0000E386EAF
:10217600000E0001DB6F000EDA6F080ED96F000E3D
:10218600376E000E366E020EABEC13F09D889D8AFC
:102196001200216E070E1964D3EF10F0D5EF10F080
:1021A6001CEF11F031EF11F019C01BF0010E1C6E7F
:1021B6001B2AE0EF10F0D8901C361B2EDEEF10F035
:1021C6001C50FF0A1D6E2150020D7A0EF324D96EA3
:1021D600000EF420DA6EDECF1EF0DDCF1FF01EC03B
:1021E600D9FF1FC0DAFF1D50DF1631EF11F019C0FD
:1021F6001BF0010E1C6E1B2A03EF11F0D8901C3643
:102206001B2E01EF11F02150020D7A0EF324D96E28
:10221600000EF420DA6EDECF1DF0DDCF1EF01DC0FD
:10222600D9FF1EC0DAFF1C50DF12F8EF10F031EFB5
:1022360011F01A501B6E1C6A1C50000AD8B426EF07
:1022460011F01AEF11F01B50000AD8B4D7EF10F0B6
:10225600010AD8B4FAEF10F01AEF11F01200096E65
:10226600070E016439EF11F03BEF11F082EF11F028
:1022760097EF11F001C003F0010E046E032A46EF3A
:1022860011F0D8900436032E44EF11F00450FF0AE3
:10229600056E0950020D7A0EF324D96E000EF42055
:1022A600DA6EDECF06F0DDCF07F006C0D9FF07C035
:1022B600DAFF0550DF1697EF11F001C003F0010EAB
:1022C600046E032A69EF11F0D8900436032E67EFE7
:1022D60011F00950020D7A0EF324D96E000EF42087
:1022E600DA6EDECF05F0DDCF06F005C0D9FF06C0F9
:1022F600DAFF0450DF125EEF11F097EF11F0025093
:10230600036E046A0450000AD8B48CEF11F080EF13
:1023160011F00350000AD8B43DEF11F0010AD8B409
:1023260060EF11F080EF11F01200216E070E1964B4
:102336009FEF11F0A1EF11F0E6EF11F0FBEF11F0B6
:1023460019C01BF0010E1C6E1B2AACEF11F0D890C1
:102356001C361B2EAAEF11F01C50FF0A1D6E2150D1
:10236600020D840EF324D96E000EF420DA6EDECF51
:102376001EF0DDCF1FF01EC0D9FF1FC0DAFF1D50B3
:10238600DF16FBEF11F019C01BF0010E1C6E1B2AA5
:10239600CFEF11F0D8901C361B2ECDEF11F0215047
:1023A600020D840EF324D96E000EF420DA6EDECF11
:1023B6001DF0DDCF1EF01DC0D9FF1EC0DAFF1C5078
:1023C600DF12C4EF11F01A501B6E1C6A1C50000A73
:1023D600D8B4F0EF11F0FBEF11F01B50000AD8B49F
:1023E600A3EF11F0010AD8B4C6EF11F0FBEF11F01C
:1023F600120022502310D8B403EF12F005EF12F0AA
:1024060047EF12F022C0D9FF23C0DAFFDF500F0BCF
:10241600246E050E246012EF12F014EF12F047EF4F
:1024260012F022C0D9FF23C0DAFFDF380F0B246E6B
:10243600070E246421EF12F023EF12F025EF12F0BD
:1024460047EF12F022C0D9FF23C0DAFFDF380F0BA7
:10245600196E000E1A6E22C0D9FF23C0DAFFDF50B4
:102466000F0B98EC11F022C0D9FF23C0DAFFDF383A
:102476000F0B196E000E1A6E22C0D9FF23C0DAFFA9
:10248600DF500F0BCCEC10F012009E9AA10E3724F1
:10249600D96EDA6A000EDA22000EDF6EABA456EFB2
:1024A60012F058EF12F060EF12F0A10E3724D96E39
:1024B600DA6A000EDA220001DF80ABA265EF12F0C5
:1024C60067EF12F06FEF12F0A10E3724D96EDA6AB9
:1024D600000EDA220001DF82A10E3724D96EDA6AF5
:1024E600000EDA22DF50D8B47BEF12F07DEF12F047
:1024F6007FEF12F081EF12F0C6EC14F002D88EEFE7
:1025060012F00500FA6E0001BF51FD6EC051FE6E5D
:10251600FF6AFA501200120031EC14F0396E310ED7
:102526003918D8A499EF12F09BEF12F0B4EF12F01D
:10253600440E0A6E000E0B6ED5EC12F0060E0F6EF0
:10254600130E0E6EAE0EE82EFED70E2EFCD70F2EF5
:10255600FAD7440E0A6E000E0B6E10EC13F0D4EF91
:1025660012F0320E3918D8A4BBEF12F0BDEF12F0FC
:10257600D4EF12F09F0E0A6E000E0B6ED5EC12F021
:10258600060E0F6E130E0E6EAE0EE82EFED70E2E34
:10259600FCD70F2EFAD79F0E0A6E000E0B6E10ECAC
:1025A60013F012000A500B10D8B4DCEF12F0DEEF75
:1025B60012F00FEF13F00AC0D9FF0BC0DAFFDF509D
:1025C6000F0B0C6E050E0C60EBEF12F0EDEF12F038
:1025D6000FEF13F00AC0D9FF0BC0DAFFDF380F0B7D
:1025E6000C6E070E0C64FAEF12F0FCEF12F0FEEF21
:1025F60012F00FEF13F00AC0D9FF0BC0DAFFDF3875
:102606000F0B016E010E026E0AC0D9FF0BC0DAFF76
:10261600DF500F0B32EC11F012000A500B10D8B439
:1026260017EF13F019EF13F04AEF13F00AC0D9FFB2
:102636000BC0DAFFDF500F0B0C6E050E0C6026EF99
:1026460013F028EF13F04AEF13F00AC0D9FF0BC0BE
:10265600DAFFDF380F0B0C6E070E0C6435EF13F044
:1026660037EF13F039EF13F04AEF13F00AC0D9FF32
:102676000BC0DAFFDF380F0B016E000E026E0AC0C8
:10268600D9FF0BC0DAFFDF500F0B32EC11F012004E
:10269600AA0EF66E280EF76E000EF86E00EE60F0CB
:1026A60010EE41F00900F5CFEEFFE550E150FAE1FA
:1026B600720EF66E2A0EF76E000EF86E00EE41F000
:1026C60010EE06F00900F5CFEEFFE550E150FAE115
:1026D60000EEA1F03B0EEE6AE806FDE100EE2FF0FB
:1026E600120EEE6AE806FDE14790479200010EEFF2
:1026F60015F040EC15F0080E0001D96185EF13F0D6
:1027060087EF13F09DEF13F0B10EDA25D96EDA6A72
:10271600000EDA22DF50AD6EDA2B070EDA6596EF81
:1027260013F098EF13F09AEF13F0000EDA6FD92B2F
:102736009EEF13F09D9802D8AAEF13F00500FA6EEB
:10274600C151FD6EC251FE6EFF6AFA5012001200B0
:102756001B6EBAEF13F09D88D7EF13F09D98D7EF55
:1027660013F09D8AD7EF13F09D9AD7EF13F01B5005
:10277600196E1A6A1A50000AD8B4C4EF13F0D7EFCC
:1027860013F01950000AD8B4AEEF13F0010AD8B40A
:10279600B1EF13F0030AD8B4B4EF13F0010AD8B4BA
:1027A600B7EF13F0D7EF13F01200036EE7EF13F055
:1027B6009D8804EF14F09D9804EF14F09D8A04EFB1
:1027C60014F09D9A04EF14F00350016E026A025051
:1027D600000AD8B4F1EF13F004EF14F00150000A28
:1027E600D8B4DBEF13F0010AD8B4DEEF13F0030A16
:1027F600D8B4E1EF13F0010AD8B4E4EF13F004EF14
:1028060014F0120022C0D9FF23C0DAFFDF500F0BED
:10281600246E050E246012EF14F014EF14F030EF5E
:1028260014F022502310D8A41BEF14F01DEF14F05F
:102836001FEF14F030EF14F022C0D9FF23C0DAFFE7
:10284600DF38070B196E010E1A6E22C0D9FF23C09E
:10285600DAFFDF500F0B98EC11F01200A10E3624B0
:10286600D96EDA6A000EDA22DF50386EA90E3624E7
:10287600D96EDA6A000EDA22DF50046E362A070EA7
:10288600366448EF14F04AEF14F04CEF14F0000EE3
:10289600366E030ED8EC13F03506020ED8EC13F0A4
:1028A600045012003738392F3435362A3132332D59
:1028B60063303D2B800F810F820F830F840F890FAA
:1028C6008A0F8B0F8C0F8D0F920F930F940F950F0E
:1028D600960F802500000000039A2A1E250000009E
:0528E6000000001300DA
:1028EC00F28EF28C8E0E01010C6F000E0D6F64ECEB
:1028FC0010F0460E226E000E236E05EC14F0440E02
:10290C00226E000E236EFCEC11F09F0E226E000E58
:10291C00236EFCEC11F0120020EE06F02250D926AA
:10292C002350DA22DFA09DEF14F09FEF14F0AAEFF2
:10293C0014F0060E196E010E1A6E020E98EC11F0C0
:10294C00AB8EAC8AABEF14F0AC9A120020EE06F012
:10295C002250D9262350DA22DFA2B7EF14F0B9EFB8
:10296C0014F0C4EF14F0070E196E010E1A6E020E5D
:10297C0098EC11F0AB8EAB88C5EF14F0AB9812004D
:10298C00A90E3724D96EDA6A000EDA22AECFDFFF39
:10299C00372A070E3764D5EF14F0D7EF14F0D9EFC0
:1029AC0014F0000E376E352A120020EE06F0195086
:1029BC00D9261A50DA22DFA8E6EF14F0E8EF14F06B
:1029CC00EBEF14F0AC88ECEF14F0AC981200F2942E
:1029DC0033C001F034C002F014EC15F04BEC15F0E0
:1029EC001200A1923050B36E2FC0B2FF48EC15F01C
:1029FC0012009E903250CF6E31C0CEFF4AEC15F0D3
:102A0C0012009E923C5031EC15F049EC15F012007E
:102A1C0076EC14F010EF15F029EF01F00250D76EA0
:102A2C0001C0D6FF1200F29042EC15F01200F290A9
:102A3C0043EC15F01200F29044EC15F01200F290F9
:102A4C0045EC15F01200F09246EC15F01200F090E7
:102A5C0047EC15F01200026E02C0CBFF1200F2928E
:102A6C004CEC15F012003231120300029E98120049
:102A7C009E9A12009E981200120012001200120070
:102A8C0012001200120012001200120012001200AA
:020000040020DA
:08000000FFFFFFFFFFFFFFFF00
:020000040030CA
:0E000000FF071F1FFF8B85FF0FC00FE00F4093
:00000001FF
